S01700006275696C642F697269732F6D61696E2E7372656343
S11300000C9494010C949D240C94A7240C94B12476
S11300100C94BB240C94C5240C94CF240C94D924A4
S11300200C94E3240C94B3010C94B3010C94B30129
S11300300C94B3010C94F2200C94B3010C943B2166
S11300400C944E220C94FF210C9438220C944322DD
S11300500C9487220C94B3010C94B3010C94B30157
S11300600C9463210C94B2220C94B3010C942623B7
S11300700C94B3010C94ED240C94B3010C946D24F2
S11300800C944C240C9457240C9462240C948024D7
S11300900C9430240C94B3010C9441240C94B301BB
S11300A00C94B3010C94B3010C94B3010C94B301FC
S11300B00C94B3010C94B3010C94B3010C94B301EC
S11300C00C94B3010C94B3010C94B301FA131814F7
S11300D0BC14281579178417CC17BD1867187A181B
S11300E0EF1814193C190F1A331A351A401A891AC1
S11300F0AA1AB01A521B861BAA1BA11C581D8C1DC0
S1130100D31DDD1DDF1DE31DFD1D011E121E231E5B
S11301104F1E91239C23B123F823FF2306240D248F
S1130120142400020E060C04000021104220633047
S11301308440A550C660E770088129914AA16BB13B
S11301408CC1ADD1CEE1EFF13112100273325222E3
S1130150B5529442F772D662399318837BB35AA38B
S1130160BDD39CC3FFF3DEE36224433420040114B3
S1130170E664C774A44485546AA54BB528850995DB
S1130180EEE5CFF5ACC58DD5533672261116300683
S1130190D776F6669556B4465BB77AA7199738872B
S11301A0DFF7FEE79DD7BCC7C448E5588668A77843
S11301B04008611802282338CCC9EDD98EE9AFF97B
S11301C0488969990AA92BB9F55AD44AB77A966A23
S11301D0711A500A333A122AFDDBDCCBBFFB9EEBCB
S11301E0799B588B3BBB1AABA66C877CE44CC55CF3
S11301F0222C033C600C411CAEED8FFDECCDCDDD1B
S11302002AAD0BBD688D499D977EB66ED55EF44EC2
S1130210133E322E511E700E9FFFBEEFDDDFFCCF6A
S11302201BBF3AAF599F788F8891A981CAB1EBA1BE
S11302300CD12DC14EF16FE18010A100C230E3203A
S11302400450254046706760B9839893FBA3DAB3E2
S11302503DC31CD37FE35EF3B1029012F322D2328A
S11302603542145277625672EAB5CBA5A8958985B2
S11302706EF54FE52CD50DC5E234C324A0148104DA
S11302806674476424540544DBA7FAB79987B89782
S11302905FE77EF71DC73CD7D326F2369106B0162A
S11302A057667676154634564CD96DC90EF92FE942
S11302B0C899E9898AB9ABA944586548067827687A
S11302C0C018E1088238A3287DCB5CDB3FEB1EFB22
S11302D0F98BD89BBBAB9ABB754A545A376A167ACA
S11302E0F10AD01AB32A923A2EFD0FED6CDD4DCDF2
S11302F0AABD8BADE89DC98D267C076C645C454C1A
S1130300A23C832CE01CC10C1FEF3EFF5DCF7CDFC1
S11303109BAFBABFD98FF89F176E367E554E745E69
S1130320932EB23ED10EF01E11241FBECFEFD1E2A8
S1130330DEBFCDBF12E0A0E0B2E0E8E5FAE500E000
S11303400BBF02C007900D92A433B107D9F71AE08E
S1130350A4E3B2E001C01D92A033B107E1F70E940B
S113036030270C942A2D0C9400002F980895289A75
S113037008959FB7F89480919D058F5F80939D05A4
S11303809FBF08950DB407FEFDCF8EB50895982F35
S11303900DB407FEFDCF8EB59EBD0895289808952F
S11303A08627082E8295807F8025092E982F829596
S11303B08F700826869598278927880F880F880FBD
S11303C080250895E9E0F9E01182108284E08093A9
S11303D0470310929C051092230910927A031092FD
S11303E0110410921004089580912C098F3F69F034
S11303F0E82FF0E0E255FD4F908190932C099F3F48
S113040011F49093060A9FEF908308958091B000B1
S11304108093B0008091B60081FDFCCF08959FB712
S1130420F894E82FF0E0E255FD4F20812F3F99F436
S1130430E091060AE81779F020912C092F3F19F46E
S113044080932C0904C0F0E0E255FD4F8083809333
S1130450060A80E001C085E09FBF089582E00C9405
S11304600F0286E10C940F0283E10C940F029FB7F4
S1130470F89420910202281307C080913E02833031
S113048019F49FBF81E008959FBF80E008952FB7BE
S1130490F8943091B2008091A9029091AA02A0919F
S11304A0AB02B091AC02B99B0BC04091B300309148
S11304B0B2000196A11DB11D840F911DA11DB11D96
S11304C0BC01CD01630F711D811D911D2FBF0895C6
S11304D0CF92DF92EF92FF92CF93C82F6A017B01F4
S11304E00E94470229E0C29FF0011124DF01AC55AC
S11304F0BB4F6D937D938D939C9313971496CD92DC
S1130500DD92ED92FC921797E455FB4F8081816058
S11305108260808386E0CF91FF90EF90DF90CF9050
S11305200C940F029C01E5E1F4E090E0858180FFEA
S113053005C0408151814217530731F09F5F3E96B9
S11305409A30A1F78FEF0895892F08950E9492029F
S11305508F3F61F09EE0899FF0011124EB5EFB4F19
S1130560858181FF03C08285938508958FEF90E094
S113057008954F925F926F927F928F929F92AF9263
S1130580BF92CF92DF92EF92FF920F93CF93CFB7A8
S1130590F894609181037091820380918303909118
S11305A084032EE433E840E050E00E94062A290147
S11305B03A0100E20E943C2A49015A01D301C201D6
S11305C0B695A79597958795BC01CD01680D791DC2
S11305D08A1D9B1D97FF09C0DC01CB01BF77BC01BD
S11305E0CD016F5F7F4F8F4F9F4F60938103709357
S11305F082038093830390938403CFBFCF910F91A1
S1130600FF90EF90DF90CF90BF90AF909F908F902E
S11306107F906F905F904F900895CF92DF92EF920A
S1130620FF928091030290910402A0910502B0917F
S11306300602B695A7959795879580933E03909368
S11306403F03A0934003B09341030E94B902C090BA
S11306503E03D0903F03E0904003F0904103A70194
S113066096010E94E429AB01BC014C0D5D1D6E1D79
S11306707F1D40933E0350933F0360934003709368
S113068041031092070980E0FF90EF90DF90CF9034
S11306900C9468022FB7F894809118029091190273
S11306A02FBF08950F931F932FB7F89440910C0414
S11306B050910D0460910E0470910F048091840098
S11306C090918500B09B08C04F5F5F4F6F4F7F4F85
S11306D080918400909185002FBFBA01552744274B
S11306E0A0E0B0E08A019B01082B192B2A2B3B2B9D
S11306F0C901B8011F910F91089540918400509150
S113070085006FB7F89420918400309185002D5FA7
S11307103F4FF901E41BF50BE817F90718F49C01A6
S1130720240F351F2115310511F421E030E021504B
S11307303109309389002093880082E086BB809140
S11307406F00826080936F006FBF08950F931F93B3
S1130750CF93DF938C018FB7F894C0919905D09112
S11307609A059E012F5E3E4F30939A05209399057A
S11307708FBF84E00E940F02CE01B8010E94BC2901
S11307808A5D9E4FDF91CF911F910F9108959091B3
S11307904802E92FF0E0EE0FFF1FE854FA4F4081C2
S11307A0518120914602222359F09F5F9D3019F018
S11307B09093480202C010924802215020934602AE
S11307C0CA010895DC01809167024091FD0390E025
S11307D055E0981769F1E92FE40FE37050962C91D6
S11307E0509730E0322F222751966C915197262B47
S11307F05E9FF0011124ED52FD4F60817181261737
S11308003707A1F452963C915297228132130EC0BD
S11308101D963C911D972481321308C053963C9138
S113082053972381321302C0892F08959F5FD1CF3C
S11308300895CF93DF93EC01809167028430A1F592
S1130840CE010E94E203837049F48091FD0390E09D
S11308500196837099278093FD0323C095E020912E
S1130860FD0330E0280F311DA90143705527949FE3
S1130870D001959FB00D1124AD52BD4F2F5F3F4F56
S113088023703327929FF001939FF00D1124ED52B2
S1130890FD4F292F01900D922A95E1F78F5F843047
S11308A0F1F683E080936702409167022091FD0393
S11308B0842F90E0820F911D8370992725E0289F53
S11308C0F001299FF00D1124ED52FD4F288930E0ED
S11308D0322F22278989282B318320838A89828396
S11308E08D8584838B8983834F5F40936702DF9177
S11308F0CF910895AC019091CD039C30B8F48091D0
S11309008603292F30E0280F311D2C30310514F0D7
S11309102C503109220F331FF901E256FA4F51834B
S113092040839F5F9093CD0380E0089581E0089514
S1130930AC019091CC039C30B8F480913709292FF5
S113094030E0280F311D2C30310514F02C503109C2
S1130950220F331FF901E75FF54F518340839F5FF7
S11309609093CC0380E0089581E00895CF93CFB7AE
S1130970F8948091000A811108C08CE00E940F0253
S1130980811103C081E08093000ACFBFCF91089505
S1130990809196058A3021F480914703843021F0B8
S11309A081E080935F0208958EE00E940F0210920E
S11309B05F020895BC014091A6026F3F8FEF780754
S11309C021F02DEE32E090E00DC0842F0895285FD1
S11309D03F4FF90138970190F081E02DE617F707B2
S11309E019F09F5F9413F3CF892F0895E8E2F1E0A3
S11309F06927660FF11DE60FF11DC895982F802D0C
S1130A003196C895902508952091530290915E02E5
S1130A1021112FC081112DC081E0809353022091B8
S1130A200F0220935202292F21702093A5022091B6
S1130A30090230910A02309351022093500220910E
S1130A405D0220934F02292F21708227967EE82F82
S1130A50F0E0EE0FFF1FE55FFD4F20813181309301
S1130A600A0220930902982B90935E0281E10C9470
S1130A700F0290FF02C09B7F01C09D7F90935E0296
S1130A800895CF93DF93D82FC62F809147038130E9
S1130A9061F028F0823099F0833019F1E2C0DD234F
S1130AA009F425C10E94E201ECC0D11120C1609378
S1130AB023098CEB860F823008F0D3C0E4C0D11137
S1130AC0D0C060937A0380911004909111040E9425
S1130AD0F604909311048093100483E080934703F9
S1130AE006C180919C058F3F09F4BBC0DD2309F446
S1130AF054C0823008F4B5C0E0910909EE2311F026
S1130B00E15001C0E2E0AE2FB0E0A75FB64F12960D
S1130B102C9130E0322F2227EE2311F0E15001C056
S1130B20E2E0F0E0E75FF64F8281282B8091100429
S1130B30909111042817390709F093C080E00E94AE
S1130B400405809123098434A9F420917A03E09167
S1130B50FE039091FF0381E08E0F863008F4BDC040
S1130B60992341F0F0E0E250FC4F22831092FE03FF
S1130B700E94B6040E94E20180914E028D7F809310
S1130B804E0280915F02882309F4B1C084E080930F
S1130B904703DF91CF910C94C804823008F44CC011
S1130BA0E0910A09F0E0E75FF64F928180915E02DE
S1130BB0282F269526952695237030E0213031057F
S1130BC021F02230310579F01EC0877E8061809348
S1130BD05E02992311F080E001C085E080935D02FC
S1130BE090930F0210C080915D028F3260F4E09107
S1130BF00902F0910A02E80FF11D908380915D02D1
S1130C008F5F80935D0280910A09E82FF0E0E75F2F
S1130C10F64F62818F5F833018F480930A0902C013
S1130C2010920A0980911004909111040E94F60414
S1130C30909311048093100480910909E82FF0E047
S1130C40E75FF64FC2838F5F833018F480930909FE
S1130C5002C01092090980919C058F5F80939C05C6
S1130C6046C00E94E20180914E028D7F80934E0225
S1130C7081E00E94040580915F02811187CFDD230A
S1130C80B1F181E02BCF80911004909111040E9466
S1130C90F6049093110480931004C43411F482E098
S1130CA001C083E08093470390915E0290FF04C0EB
S1130CB092FDD7CF946003C091FDD3CF92609093FF
S1130CC05E0280915E02877E886080935E0210924D
S1130CD05D028FEF80930F020AC0891709F44ACF8F
S1130CE0F0E0E250FC4F22838093FE0341CFDF917A
S1130CF0CF910895019701960197E1F70895CF9355
S1130D00DF93FC012281211109C09093CB098093C8
S1130D10CA0910926202DF91CF910895EC01662313
S1130D2021F0808191810E941904888199810E9417
S1130D307A04CE01DF91CF910C949804CF93DF9382
S1130D40DFB7F894C0916002C11109C081E08093BB
S1130D5060021092110289E00E940F0218C0809173
S1130D608F038F3F99F4E0911202EE2379F0809182
S1130D7013028F3F19F41092130204C0F0E0E157FC
S1130D80FC4F108210921202C0E001C0C5E0DFBF28
S1130D908C2FDF91CF9108959C01809159029091FD
S1130DA05A02892BB1F59FB7F89485E080935702D6
S1130DB01092560230935C0220935B0222E030E0F2
S1130DC030935A0220935902109254021092550201
S1130DD0645F609358029FBF8FB7F8949091960513
S1130DE09A3011F48FBF17C08FBF9FB7F8948091CA
S1130DF09903811106C081E08093990310929A03AC
S1130E0001C080E09FBF882331F00E94B60480E0D7
S1130E10089585E0089510925A021092590281E0D3
S1130E2008958FEF8093D5098093D40984E6809345
S1130E30DA0980910A0490910B04892BF1F48FEC68
S1130E4099E090930B0480930A048CE18093D80971
S1130E5080911002882391F0109210026CE18FECC3
S1130E6099E00E94CC06882349F091E09093100207
S1130E7010920B0410920A04089585E0089580915D
S1130E804B028C3118F4482F50E002C04CE150E082
S1130E909CE1EBEDF9E0DF011D929A95E9F7909161
S1130EA04D0220E030E02417350799F0E92FF0E0F7
S1130EB0E95FF74F6081882329F09F5F9A3F09F427
S1130EC090E08150F901E153F64F64872F5F3F4F63
S1130ED0EACF90934D0280934B020E94110788231E
S1130EE019F082E10C940F020895CF93DF931F92BF
S1130EF0CDB7DEB790914A0291110BC090914B028D
S1130F009D3738F091E090934A0289830E943F070D
S1130F1089813FB7F89420914B022A3FB8F490910D
S1130F204C02E92FF0E0E95FF74F808381E0890FFD
S1130F308A3F19F080934C0202C010924C022F5F3A
S1130F4020934B023FBF80E090E003C03FBF8FEF90
S1130F509FEF0F90DF91CF910895809135098823F9
S1130F6019F080E09FE102C088E091E04FB7F89467
S1130F702091E8022E7F2093E80220917C00322FFA
S1130F803F71229526952695237011F421E0931341
S1130F9020E03091E80220FB31F99F71292F220FC4
S1130FA0220F3378322B3093E80290937C00209107
S1130FB0E8022170883019F580912D0990912E094D
S1130FC0863831E0930780F4833C910578F48136C8
S1130FD0910570F48033910568F48831910560F4CB
S1130FE00C9760F480E00BC087E009C086E007C07E
S1130FF085E005C084E003C083E001C082E087701F
S11310008860806120FB85F98064806880937A0021
S11310104FBF0895CF93DF93DFB7F89480916102B7
S1131020823021F5C0911402C11120C090911602A2
S11310309F3FB1F0E92FF0E0E451FD4F80818093B0
S113104016028F3F11F4809315028FEF80839093E3
S1131050140281E08093610280E00E940F0204C0C8
S11310609093140210926102DFBF02C0DFBFC1E09F
S11310708C2FDF91CF910895CF93DF93DFB7F8944E
S113108080916002823039F5C0911102C11123C0F0
S1131090909113029F3FB1F0E92FF0E0E157FC4F2C
S11310A08081809313028F3F11F4809312028FEF9B
S11310B080839093110281E08093600289E00E9412
S11310C00F0204C090931102109260028CB58F7BC2
S11310D08CBDDFBF02C0DFBFC1E08C2FDF91CF9199
S11310E00895CF92DF92EF92FF920F931F93CF93C5
S11310F0CFB7F8942091B3009091B20087B3291729
S113110011F081FF02C0CFBF7CC080917B038111AD
S113111002C086EE3FC00E944702C0909E02D0905B
S11311209F02E090A002F090A10200913809109172
S1131130390920913A0930913B09AB01BC014C19A2
S11311405D096E097F09401751076207730728F08C
S113115010927B0386EE91E01EC0D901C8018C0D6C
S11311609D1DAE1DBF1D4091A9025091AA02609120
S1131170AB027091AC02841B950BA60BB70B873E98
S11311809105A105B10528F682309105A105B105A7
S113119008F482E090E02FEF280F3091B60033FD81
S11311A0FCCF3091B2002313822F4091A9025091B9
S11311B0AA026091AB027091AC028A019B010F5F9D
S11311C01F4F2F4F3F4F080F111D211D311D0417B5
S11311D015072607370710F4842F80952091B60051
S11311E023FDFCCF8093B300CFBF992351F085E05A
S11311F0CF911F910F91FF90EF90DF90CF900C94BF
S11312000F02CF911F910F91FF90EF90DF90CF903D
S113121008950F931F93CF93DF938C01EB010E94EA
S1131220B902CB01B8010E94BC29AC014C0F5D1F6F
S113123060E070E082E0DF91CF911F910F910C94F8
S11312406802CF93CFB7F89490913E02933009F09F
S113125040C09091020298133CC08091A30488235B
S1131260D9F120913F0230E0C9010196A1E0B0E03C
S11312708230910511F480E090E0E82FE695E69540
S1131280E695F0E0ED55FB4F4081582F5770BD01B6
S113129001C0660F5A95EAF7542F562331F0609532
S11312A04623408380933F0206C08217930711F0C0
S11312B00196DECF8FEF8093D2058FEF80930202E9
S11312C081E080933E0288E10E940F02CFBF80E05C
S11312D009C0CFBF81E006C082E080930202109271
S11312E03E02F4CFCF910895CF93DF931F92CDB7F1
S11312F0DEB789830E94CE01898180688EBD80E03B
S11313000E94C7010E94C20189830E94B70189819A
S11313100F90DF91CF9108951F93CF93DF931F9286
S1131320CDB7DEB7182F69830E94CE01912F906C40
S11313309EBD89810E94C7010E94C2010F90DF9166
S1131340CF911F910C94B701FC016485258561112F
S11313500AC030E0215031098AE0829FB001839FA6
S1131360700D11240BC03AE0239FC001112470E0DA
S11313700E94D0296A507109148615862285338506
S113138049E0429FC001439F900D11240596860FAA
S1131390971F6AE070E00E94BC29738762870895F2
S11313A08CB58F7B8CBD229A2398219A209A8CB578
S11313B080618CBD8CB58F778CBD8CB5877F8CBDDF
S11313C08CB58B7F8CBD8CB580648CBD8DB58160F4
S11313D08DBD8CB58C7F8CBD0895CF938FB7F89459
S11313E090911102911106C090916002923011F413
S11313F08FBF0FC08FBFCFB7F89480916002811167
S11314000AC082E080936002109211020E94D00907
S1131410CFBF81E004C0CFBF0E949E0680E0CF9181
S11314200895CF93DF93FC01228130E0322F2227ED
S11314304181242B25FF15C027743C7C2134384876
S113144081F4FC01C781D0E0DC2FCC278681C82B36
S11314500E944A0321E0C817D90709F020E0822F2F
S113146001C080E0DF91CF9108950F931F93CF9334
S1131470DF93E0914802F0E0EE0FFF1FE854FA4FCB
S1131480C081D181662329F06CE170E08CE190E0A9
S11314902CC08C018091490283FF3CC0F80184A5D3
S11314A080FD38C0878190E0982F88272681822B81
S11314B00E9492028F3F71F09EE0899FF0011124F7
S11314C0EB5EFB4F85858F5F8587853018F0CF01F4
S11314D00E94A4090E9431028B8181508B8388234E
S11314E051F067E070E087E090E0DF91CF911F91C9
S11314F00F910C9409090E94C703809149028F7EC1
S11315008093490267E070E087E090E00E94090957
S113151060E02AC00E94C703809149028F7E8093B5
S1131520490267E070E087E090E00E940909F80151
S1131530878190E0982F88272681822B0E9492022F
S11315408F3F89F09EE0899FF0011124EB5EFB4FF1
S113155084858F5F848785858F5F8587853018F0C4
S1131560CF010E94A40961E0CE01DF91CF911F91C8
S11315700F910C947F0610921002E0910A04F091EE
S11315800B043097D1F08091360980FD16C080910C
S11315901002811116C02581868161856D3118F094
S11315A08BE00C940F0290E0922B86839583CF01FD
S11315B00E94CC06882329F0F3CF81E080931002A7
S11315C0E6CF08954F925F926F927F928F929F928F
S11315D0AF92BF92CF92DF92FF920F931F93CF935C
S11315E0DF93A4EAB4E0C12CD12C49E04C9DF00176
S11315F04D9DF00D1124EF01CC55DB4FF884F1FE25
S113160041C18D909D90AD90BC90139714960D910F
S11316101D912D913C9117972B013C0148185908B5
S11316206A087B08401651066206730608F42AC14C
S1131630F0FE06C0E455FB4F20812D7F20830AC0B5
S1131640B901A801480D591D6A1D7B1D48835983A2
S11316506A837B8322E0C21609F46CC02C1528F03F
S113166081E0C81609F459C008C023E0C21609F481
S113167069C084E0C81609F493C0809143028823AA
S113168009F409C180914202882309F404C18091BC
S11316900709811120C00E94310287E10E940F02D4
S11316A04091030250910402609105027091060278
S11316B080913E0390913F03A0914003B091410378
S11316C0481B590B6A0B7B0B81E08093070980E070
S11316D00E946802E0C08091030290910402A091EC
S11316E00502B0910602880F991FAA1FBB1F813003
S11316F020ED920727E0A207B10520F080E090EDED
S1131700A7E0B0E08093030290930402A093050243
S1131710B09306020E940D03BEC080914302882349
S113172009F4B9C080914202882309F4B4C00E942C
S11317303102B1C0809149028F7E809349020E9498
S11317403402A9C02FB7F89492B181E0982792B9D6
S11317502FBF9091620291119EC09FB7F89420917F
S11317603C02211110C080933C02109280039FBF61
S113177090913902911104C08BE10E940F028BC039
S11317808093380288C080918003882339F0809147
S1131790A80280FD03C081608093A8029FBF7BC024
S11317A080E00E943702882399F14FB7F894809122
S11317B03C02882369F090910102913061F48150D8
S11317C031E020E0823008F030E0832F922F05C012
S11317D081E090E002C080E090E04FBF892BC1F02F
S11317E0CFB7F89480910102813089F480913C0252
S11317F0813021F489E10E940F0209C0823039F45A
S1131800809180038093010283E080933C02CFBFE8
S113181081E00E943702882309F43DC04FB7F89451
S113182080913B02882369F090913A0291110CC097
S1131830815031E020E0823008F030E0832F922F95
S113184005C081E090E002C080E090E04FBF892BAA
S113185011F1CFB7F89480913A02811111C08091AF
S11318603B02813021F48AE10E940F0209C08230D8
S113187039F48091D10280933A0283E080933B0251
S1131880CFBF09C02FEFC21AD20A199625E0C2169B
S1131890D10409F0ABCE86E0DF91CF911F910F9177
S11318A0FF90DF90CF90BF90AF909F908F907F90EC
S11318B06F905F904F900C940F02CF93DF93982F0B
S11318C03FB7F894C0913E02C1111FC081E08093DC
S11318D03E029093D2053FBFDFB7F8948091020295
S11318E0823089F480913E02813021F488E10E94A3
S11318F00F0209C0823039F48091D205809302022C
S113190083E080933E02DFBF20C08091D20589131B
S113191003C03FBFC0E019C0E92FE695E695E69500
S1131920F0E0ED55FB4F4081292F277081E090E0D6
S113193001C0880F2A95EAF7242F282321F4842B49
S11319408083C0E001C0C5E03FBF8C2FDF91CF9101
S113195008958091930390919403892BC1F581E0BC
S113196090E0909318098093170982ED92E0909388
S1131970940380939303109278031092770381E089
S1131980809379038091C00080648093C00080912B
S1131990C10080648093C1008091770390917803A3
S11319A09C012F5F3F4F3093780320937703FC0112
S11319B0EE52FD4F80819FB7F8948093C6008091CA
S11319C0C00080648093C0009FBF80E0089585E0DC
S11319D0089593E8980F923050F490914E029160DC
S11319E090934E0290E2892780939B058DE7809324
S11319F0D2020C94A90C9FB7F89480914E028E7F6A
S1131A0080934E028EE78093D2029FBF0C94A90C60
S1131A102F923F924F925F926F927F92AF92BF92BA
S1131A20CF92DF92EF92FF920F931F93CF93DF93A6
S1131A3020916402222311F015E0DEC01091CE093A
S1131A401530D1F720910E092111F6CFEC010E9437
S1131A50ED09882389F38CA582FF03C06EA56F70FE
S1131A6001C06FE08091CB03681731F06093CB0322
S1131A70606885E00E948C092A8130E0322F222799
S1131A808981282B27743C7C21343848A1F486E0D2
S1131A900E9474098F7190E04091850320913D0369
S1131AA030E0240F311D43E0359527954A95E1F741
S1131AB02817390744F169E082E00E948C090E94EA
S1131AC052032B013C016E01EFEFCE1ADE0A0881AE
S1131AD08CA52EEFB22EB00E84FF09C09E012C19E6
S1131AE03D098BEF800FA82EA20EBA1802C0AB2CB2
S1131AF0B12C81E00E9474098F71893039F066E05D
S1131B0082E00E948C090E943C0876C08FB7F8944A
S1131B102F9AE0908400F09085008FBF0E94B50159
S1131B200E94CE0180E68EBD802F0E94C7018601EF
S1131B303A2CF80181918F010E94C7013A94311027
S1131B40F8CFAA942A2D30E08601020F131F2F5FCD
S1131B503F4F2C0D3D1D1701F2EA2F0E311C2418A6
S1131B603508C101AA2797FDA095BA2F12012301B8
S1131B70280E391E4A1E5B1EBB2041F1F8018181EB
S1131B80C280D12CE12CF12C7601DD24CC24F82A5E
S1131B908481C82A8381D82AD701C601821993096E
S1131BA0A409B50984839383A283B183A22E390146
S1131BB0F30181913F010E94C701862D8A198B117F
S1131BC0F7CFF801C482D382E282F1820E94C2017B
S1131BD00E94B70166E082E00E948C098CA58260B5
S1131BE08CA728A639A64AA65BA686E08093CE09D0
S1131BF084E08093640210E0812FDF91CF911F91E4
S1131C000F91FF90EF90DF90CF90BF90AF907F90B7
S1131C106F905F904F903F902F9008953F924F9216
S1131C205F926F927F928F929F92AF92BF92CF9268
S1131C30DF92EF92FF920F931F93CF93DF9300D025
S1131C40CDB7DEB714E030E8A32E05E043E0D42E90
S1131C5059E0852E62E0C62E78E0B72E81E09AE046
S1131C60E5E09E2E980E80916005823009F07DC0DB
S1131C701092600580919603823009F459C0833034
S1131C8009F461C0813009F070C020918400309162
S1131C9085006090080470900904621A730A909198
S1131CA04603903841F410924603909145039230D4
S1131CB009F05BC03AC097FF04C0161417040CF473
S1131CC0A8C3E0904203F09043038091A7028111DE
S1131CD0A0C3C7010E94080D282F81119BC3D701FF
S1131CE09C968C919C978E7F9C968C9381E080939C
S1131CF0A702F092080AE092070AD092460335C080
S1131D0097FF9FC3161417040CF09BC3A0924603BD
S1131D1081E08093960380936005C30129830E9428
S1131D207D03298120933C0981E08093450308C009
S1131D301092A7021092460310923C091093450397
S1131D400E942E0212C09091CE09923019F4809311
S1131D50CE0909C080916402863029F4109264028D
S1131D6081E00E9474090E94A91380910E098823BE
S1131D7009F4B3C08091CE09813009F4AEC00E9449
S1131D80ED09882309F4A9C08FB7F89460908903FA
S1131D9070908A038FBF10920E098FE00E9474091D
S1131DA0F82E809164028B7F833021F40093CE0956
S1131DB0B0926402F2FE4AC080916402863011F44B
S1131DC01092640280916402811140C0B4E0FB125D
S1131DD034C086E00E9474098F7190913D03292FCD
S1131DE026952695921B980F90933D03E091A202AD
S1131DF0F091A30294A59B7F986094A786A70E9464
S1131E005203930127503109261B370B29016624FD
S1131E1057FC6094762CE091A202F091A30224A5D1
S1131E20226024A7AB01BC01440D551D661D771D1E
S1131E3040A751A762A773A707C0E091A202F0913F
S1131E40A30284A5857F84A700936402F3FE45C0A2
S1131E5080916402843081F50093CE09109264026B
S1131E608091A702833019F41092A70236C0E09142
S1131E70070AF091080A828190E0982F882721812F
S1131E80822B85FF0EC087749C7C8134984849F46A
S1131E90878190E0982F88272681822B019609F06C
S1131EA0D3C21092A7021092460310923C091093D9
S1131EB045030E942E0211C0853079F486E00E9409
S1131EC07409909185038F71292F26952695921B6D
S1131ED0980F909385038092640280916402882312
S1131EE009F44DC2893009F0BCC10E94CE0180E2E0
S1131EF08EBD0DB407FEFDCF8EB51EBC0DB407FE1E
S1131F00FDCF8EB59DEF980F973208F07AC01EBCB6
S1131F10E091A202F091A3023F015FEF651A750AF6
S1131F208083AEEF5A2E580E86E0851510F0452CAE
S1131F3002C0F7E04F2E7301342C40E050E080E003
S1131F4049835A830E94C701D7018D937D01682F6D
S1131F5049815A81CA010E94D001AC013A943110DE
S1131F60EECF2FEF240D30E02F5F3F4F620E731E34
S1131F70E091A202F091A30281818770823029F45A
S1131F808091A7028230D9F50BC09FB7F89481E005
S1131F9020910109233008F080E09FBF882379F164
S1131FA0852D84197301680E80E049835A836E1469
S1131FB069F00E94C701F70181937F01682F49816D
S1131FC05A81CA010E94D001AC01EECF0E94C70120
S1131FD0682F49815A81CA010E94D0017C0180E0A6
S1131FE00E94C701682FC7010E94D0017C010E9492
S1131FF0C201E091A202F091A30285A705C00E944C
S1132000C201EE24E394F12C0E94B7010093CE099F
S113201010926402EF2809F0A9C14090A2025090E6
S1132020A302D20111968C91119787709091A70207
S1132030823029F5923009F00FC1E091070AF0913E
S1132040080A13969C918381981306C180916F00AE
S11320508D7F80936F0010926005E091070AF091E4
S1132060080A84A5816084A71092A70210924603EF
S113207010923C09109345030E942E02EDC0911169
S113208017C0C2010E94110A882391F00093CE0365
S1132090C092CF031092D003F20183818093D103C5
S11320A08EEC93E00E94080D811102C0D092A70229
S11320B0E0908400F0908500C2010E94110A8823F8
S11320C021F0F4EEEF1AFCEFFF0AF0920904E0921B
S11320D0080480918400909185009701281B390B96
S11320E0C90118161906ACF42091460321110EC03B
S11320F02091600521110DC021E0209396032093C7
S113210060050E947D03A092460303C020682093CB
S11321104603D20119968C91199790E0982F88273D
S113212018962C91822B2091AD02422F50E0FA0197
S1132130EE0FFF1FE75EF64F60817181F09061053D
S11321406817790711F4FA0110C0A9E1B9E0E1E0D8
S1132150FAE020E030E070E060E04D915D914817D6
S1132160590779F42093AD02F901EF5FF54F8081AF
S11321708F1509F43FC0F394F0926105F08260E892
S113218022C041915F2D541B651710F4722F652FE7
S11321902F5F3F4F2530310501F77093AD02272F94
S11321A030E0F901EE0FFF1FE75EF64F9183808365
S11321B0F394F0926105F901EF5FF54FF082F901B4
S11321C0EB5DF54F108280916105982F9F779F37C3
S11321D019F02091AD020EC06F37D8F3E1E0FAE0B8
S11321E0282F207890819F679813208331969E1220
S11321F0F9CFEFCFD20113969C91E22FF0E0DF01EB
S1132200AB5DB54F8C91EE5FF64F80FF04C08081CB
S1132210981303C021C081608C939083FFB6F89417
S1132220809101098330B8F4E0913409E80FE33078
S113223008F0E350F0E0EE0FFF1FE759FD4F708008
S1132240E180518240828F5F8093010983E00E9484
S11322500F02472C5E2CFFBE5092A3024092A202B2
S113226085C09FEF980F933008F06EC09EEF980FD3
S11322709230D8F52091CE09213099F490916005DF
S113228091110FC029830E94B501D0929603298130
S1132290209360058BE293E00E947D03C092CE09F7
S11322A03EC0833011F5233001F50E94ED098823E7
S11322B0E1F08FE00E947409809181008064809332
S11322C0810080E286BB80916F00806280936F0002
S11322D06091E902606688E00E948C0966E082E011
S11322E00E948C091093CE091AC080916402815017
S11322F08230A8F48091CE09853089F40E94ED09DA
S1132300882369F063E082E00E948C0980916F0069
S11323108F7D80936F0010920E09D092CE09809128
S11323206402813041F49091CE099330F9F42F9AEC
S11323308093CE0906C08230C9F48091CE098330DF
S1132340A9F4B092640212C0873081F40E94ED09AE
S1132350882361F06091E902606688E00E948C093C
S11323608091CE09853069F71093CE09809164027B
S1132370883029F41092640281E00E940F02809157
S1132380640281111DC08091CE098530C9F4809109
S11323900E09811115C08091A702811111C080918D
S11323A0460381110DC080916005811109C080919F
S11323B04503823029F481E0809345030E942E0274
S11323C080916402811103C087E00E940F028FB7DD
S11323D0F89490919D059130B9F410929D058FBFAA
S11323E00F900F90DF91CF911F910F91FF90EF907D
S11323F0DF90CF90BF90AF909F908F907F906F9021
S11324005F904F903F90089591E090939D058FBF0A
S11324102ACC25E090914603892F8F77813009F0EB
S11324206FCC907892609093460380E198E00E948C
S1132430A60321E020939603209360050E947D0368
S113244094CC109246036ECC80916005811129CD05
S1132450C092960381E08093600589E993E00E942D
S11324607D03C092A70239CD9FB7F89480919D0552
S1132470815080939D05803811F09FBF089581E0BD
S113248080939D059FBF0C940E0E0F931F93CF93C3
S1132490DF931F92CDB7DEB78C018FE3F8018287FB
S11324A0909163029F5F9093630293830E94B901AA
S11324B08091450381110DC01093980500939705F1
S11324C081E080934503109262050E942E0280E011
S11324D001C085E089830E94341289810F90DF91C5
S11324E0CF911F910F910895FF920F931F93CF9354
S11324F0DF93EA012D3108F068C0EA81F0E0FE2F95
S1132500EE279981E92BAF0147745C7C413458482C
S113251039F0E073FF27E164F868E98398E89A8367
S11325208B01F82E235F28830E944A0388879987AA
S11325309FB7F894809117029FBF8C831D82FB86FE
S11325400E831F838FB7F8949091610291110FC08D
S113255092E090936102109214028FBFCE010E9408
S11325604512C82F882391F10E940A082FC08FBFFB
S1132570D093EB02C093EA02DFB7F894C0916102F2
S1132580C11109C081E0809361021092140280E0BD
S11325900E940F0218C08091EC028F3F99F4E091E1
S11325A01502EE2379F0809116028F3F19F41092F0
S11325B0160204C0F0E0E451FD4F1082109215029F
S11325C0C0E001C0C5E0DFBF01C0C6E08C2FDF91D1
S11325D0CF911F910F91FF9008950F931F93CF9365
S11325E0DF93082FEB01142FE82FF0E0EE0FFF1F0D
S11325F0E85DF64F11821082909108029F5F9170FE
S113260082E0492F50E0FA01EE0FFF1FE85DF64F1C
S113261020813181232B59F020918B0330E0092E46
S113262002C0359527950A94E2F720FF08C04F5F52
S11326305F4F942F91708130E9F181E0E2CF909364
S11326400802E0910802E230F0F4F0E0EE0FFF1F20
S1132650E85DF64FA081B1812C912D5017966C91B5
S1132660179770E0F62FEE2716968C911697BF01F8
S1132670682BAD011B968C910E947412882319F06B
S113268085E10E940F02002319F0013049F016C0C1
S1132690612FCE01DF91CF911F910F910C94350AD8
S11326A0C854D34059F480914102882339F01092E0
S11326B0410204C082E080930802C3CFDF91CF912E
S11326C01F910F910895DC01462F809108028230FA
S11326D068F4E82FF0E0EE0FFF1FE85DF64F60812D
S11326E071816A177B0711F40C94ED120895CF934E
S11326F0DF93C82FD0E0CC0FDD1FC85DD64F2881F3
S11327003981232B01F5798368839DE0940FFB01C4
S11327109083909108029230C0F0242F982F8385E3
S1132720678170E0762F66273681632B90930802C9
S1132730AF010E947412882341F092E09093080242
S11327401982188203C085E001C080E0DF91CF9137
S113275008959FB7F89480919D05882329F0806897
S113276080939D059FBF089581E080939D059FBF41
S11327700C940E0E8FB7F89408958FBF08958FB7F9
S1132780F89490914A02913011F48FBF0EC0909149
S11327904B02911104C08FBF81E090E0089591E055
S11327A090934A028FBF0E943F0780E090E0089513
S11327B02F923F924F925F926F927F928F929F924D
S11327C0AF92BF92CF92DF92EF92FF920F931F933B
S11327D0CF93DF9300D000D01F92CDB7DEB790E047
S11327E08332910510F00C94DA20FC01EA59FF4F72
S11327F00C94312A8FB7F89492E0909361028FBFC2
S11328008091140281110C94DA208091EA02909153
S1132810EB020E944512882311F40C94DA208A8377
S11328200E940A086A818091EA029091EB02F7C043
S11328308091450310924503853009F08DC081E0F5
S1132840809343028091420281110E94B9028091D7
S113285049028460809349028091460281110E945A
S11328603402809149028260809349020E944A03A3
S11328709093B7058093B60580914202811130C0D0
S113288081E08093420280E890E0A0E0B0E0809391
S1132890030290930402A0930502B09306020E94DF
S11328A00D030E9447026093AD047093AE048093BD
S11328B0AF049093B00480E090E2A0E0B0E0809395
S11328C0B1049093B204A093B304B093B404809180
S11328D0B5048E7F82608093B50486E00E940F0267
S11328E080912802909129020197C1F480910F09E7
S11328F09091100921E0209368022091B60530914F
S1132900B7053093100920930F0910921209109201
S11329101109019611F00C94DA206FC60E94470247
S11329206093BF047093C0048093C1049093C20465
S113293080ED97E0A0E0B0E08093C3049093C404DA
S1132940A093C504B093C6048091C7048E7F8260AF
S11329508093C70486E077C4863031F41092430232
S1132960809149028B7F9BC6873011F40C94DA2046
S1132970809345030C94DA200E94B9010091450329
S1132980013091F5809162058F5F809362058630F6
S113299058F580919705909198052091460321114F
S11329A015C010916005111111C0909343038093D9
S11329B04203009346038BED91E10E94A60300932A
S11329C09603009360050E947D0301C015E01093F7
S11329D03C09111104C083E08093450308C082E0E0
S11329E08093450310E003C01092450311E00E9458
S11329F03412112311F40C94DA2060913C090091F3
S1132A00970510919805D8011A968C918F3311F07F
S1132A100C94DA206A830E940A086A81C8010F9024
S1132A200F900F900F900F90DF91CF911F910F9106
S1132A30FF90EF90DF90CF90BF90AF909F908F90DA
S1132A407F906F905F904F903F902F900C94631302
S1132A50B0E84B2E512C612C712C1EE0312E222417
S1132A6023948FB7F89490910109992311F40C944D
S1132A70211EE0913409F0E0EE0FFF1FE759FD4FEE
S1132A80208131813D832C838FBFAC81BD812C910A
S1132A908EEF820F893008F40EC21A968C911A9721
S1132AA08F3309F0EAC185EF820F823008F403C244
S1132AB01B963C911B9717960C91179710E0102FBB
S1132AC0002716968C91082B0F3FBFEF1B0759F474
S1132AD0EC81FD8194814FB7F894809117024FBF28
S1132AE0981761F0B7C12A833B830E944A032A8165
S1132AF03B810817190709F0ADC1EACF303721F03F
S1132B00313709F456C1D7C1AC81BD8117968C9178
S1132B10179790E0982F882716962C91822B019670
S1132B2081F0EC81FD8180818D5094859F70292FE7
S1132B30220F920F891B9EEF980F8D3108F040C031
S1132B4032C0AC81BD811996EC901997F12CFE2C02
S1132B50EE2418968C911897E82A1C968C918F7005
S1132B60B82EC7010E9492028F3F21F0EC81FD81B3
S1132B7065850FC0EAE1F4E010E0808180FD0DC0BE
S1132B80B701812F0E946325AC81BD811D966C9194
S1132B90812F0E94E1250C94691F1F5F3E961A3015
S1132BA061F70C94541FCC80DD80ECE0CE0ED11C78
S1132BB0C114D10409F1953009F07DC10C94CB20E6
S1132BC0953009F078C1AC81BD8119960C911997A3
S1132BD010E0102F002718968C911897082B6D0180
S1132BE0BCE0CB0ED11CE12CF12CC114D104A1F01A
S1132BF0EC81FD813E9612C0953009F05CC1AC8138
S1132C00BD8119960C91199710E0102F0027189682
S1132C108C91082BE12CF12CE0E0F0E02081298359
S1132C20D70111968C91119790E0982F88271296CE
S1132C302C91822B019609F4B2C0F701838190E0B4
S1132C40982F88272481822B892B91F5C8010E9413
S1132C5092028F3F01F5EAE1F4E080E0908190FD7B
S1132C6002C0B80116C08F5F3E968A30B9F780E083
S1132C700E947925B82E6FEF861769F03B9CF0010E
S1132C801124EB5EFB4F808191810E949A25B8014B
S1132C908B2D0E946325C8010E9492028F3F41F050
S1132CA0389EF0011124EB5EFB4F8581886085839B
S1132CB0D70113968C901397912C982C88241496F2
S1132CC08C911497882A11968C91119790E0982FE3
S1132CD0882712962C917C01E22AC8010E94A60240
S1132CE05C01C8010E94DA048A3081F19091A60245
S1132CF089131FC0B2E3AB16B10440F5E8E08E9F20
S1132D00D0011124A351BD4F11961C930E93139619
S1132D10FC92EE92129715969C928E9214971696A8
S1132D202C92169717961C92E1E0E80FE093A60206
S1132D300DC028E0829FF0011124E351FD4F11835F
S1132D400083F382E2829582848226828091070244
S1132D50811125C0FF24F394398136FFF12CC80179
S1132D600E94DA049091A602891738F458E0859FEE
S1132D70F0011124E351FD4FF78280911409882357
S1132D8029F0F11003C00E94310209C080910F099B
S1132D90909110098017910711F4F110F4CFCD2808
S1132DA021F0EC81FD813E9602C0E0E0F0E08081FC
S1132DB057C0AC81BD8153961C9153971D960C91BD
S1132DC01D970F5F1D960C931D972D502D3108F004
S1132DD072C0CD010E94E20390916702891708F442
S1132DE06AC040914602442309F45BC050914802F2
S1132DF0EC81FD81808990E0982F88272189822B9E
S1132E004150E42FE50FED3008F0ED50F0E0EE0F07
S1132E10FF1FE854FA4F0190F081E02D0190F081FA
S1132E20E02D208930E0322F22276189262B2817B4
S1132E30390769F43289AC81BD8152962C913213E1
S1132E4006C02585201303C023892117A1F1411150
S1132E50D7CF27C0313779F5AC81BD811C968C91D1
S1132E6087FF29C040920302509204026092050237
S1132E70709206020E940D031EC0EC81FD81078141
S1132E8010E0102F00278681082B0E944A030817A0
S1132E90190719F00F3F1F4F71F48FB7F8948FBFC4
S1132EA00AC08091680281110C94A81F9091CD03EF
S1132EB091110C94C61F8C819D813FB7F894209189
S1132EC03409E22FF0E0EE0FFF1FE759FD4F808336
S1132ED0918381E0820F833018F48093340902C017
S1132EE010923409809101098150809301093FBFF8
S1132EF0B8CD0E94B9022FB7F89470939A056093E5
S1132F0099052FBF0C94DA208091E702811141C00A
S1132F10409124095091250960912609709127094F
S1132F202FB7F894C0903809D0903909E0903A0945
S1132F30F0903B0980919E0290919F02A091A00283
S1132F40B091A1028C0D9D1DAE1DBF1D2FBF4093DE
S1132F502409509325096093260970932709109238
S1132F60E7022FB7F89431E030937B0380939E02FD
S1132F7090939F02A093A002B093A10240933809BA
S1132F805093390960933A0970933B092FBF0E940B
S1132F9071080E94470249C00E9447022FB7F89463
S1132FA010927B032FBFA4EAB4E010E044244A94B7
S1132FB0542C642C2FE7722E20E030E009E0029FAD
S1132FC0F001039FF00D1124EC55FB4F408541FFA8
S1132FD01DC0CD90DD90ED90FC9013974B015C01EA
S1132FE08C189D08AE08BF081496CD90DD90ED9026
S1132FF0FC901797C818D908EA08FB08C414D5042C
S1133000E604F7041CF42601370111E02F5F3F4F5B
S113301019962530310599F6112311F40C94DA2010
S11330201414150416041704CCF00F900F900F908D
S11330300F900F90DF91CF911F910F91FF90EF9020
S1133040DF90CF90BF90AF909F908F907F906F90C4
S11330505F904F903F902F900C94E20A4092240985
S113306050922509609226097092270921E0209345
S1133070E7023FB7F89420937B0360939E0270931A
S11330809F028093A0029093A1024092380950922B
S1133090390960923A0970923B093FBF0F900F9033
S11330A00F900F900F90DF91CF911F910F91FF9090
S11330B0EF90DF90CF90BF90AF909F908F907F90D4
S11330C06F905F904F903F902F900C9471088FB742
S11330D0F8941092300510922F051092CD09109299
S11330E0CC091092660210926502109207041092A5
S11330F00604A7C51FB7F89482E0809360020E947B
S1133100D0091FBF8091110281110C94DA208091A3
S1133110CE0981114BC08EEF91E00E947A06169879
S11331200E94B50186E090E00E947A06169A60E05B
S113313083E00E948C0968E082E00E948C098EEF93
S113314091E00E947A066DE48EE00E948C0967EC9F
S113315089E00E948C096FE885E00E948C098FE069
S11331608093CB038AE18093E9026AE788E00E94B6
S11331708C092F9A81E08093CE090F900F900F90C5
S11331800F900F90DF91CF911F910F91FF90EF90CF
S1133190DF90CF90BF90AF909F908F907F906F9073
S11331A05F904F903F902F900C943C080F900F909D
S11331B00F900F900F90DF91CF911F910F91FF907F
S11331C0EF90DF90CF90BF90AF909F908F907F90C3
S11331D06F905F904F903F902F900C94A913809123
S11331E03609882311F40C94DA200AE014E0E12C67
S11331F0FF24F394809136099F2D982369F0D80118
S11332001D921C929F2D9095892380933609E1107D
S113321003C082E10E940F02FF0CE3940E5F1F4F74
S1133220B8E0EB12E7CFC6C710911002E12FF0E02F
S1133230EE0FFF1FE65FFB4F118210820E94BB0A54
S11332401111B8C782E10F900F900F900F900F905B
S1133250DF91CF911F910F91FF90EF90DF90CF906E
S1133260BF90AF909F908F907F906F905F904F90A2
S11332703F902F900C940F022FB7F8941092000AED
S11332808091960598EF980F923050F4109296051D
S1133290E091A104F0E0EE0FFF1FE956FC4F10820D
S11332A02FBF923018F53FB7F894909133099F5F80
S11332B09093330990919003933489F48091FF03A0
S11332C09091FE03981741F08F5F863018F4809335
S11332D0FF0302C01092FF0380E020E005C021E05C
S11332E0883009F420E081E03FBF04C08111F0C6BA
S11332F020E080E03FB7F89490915F023FBF9923AC
S113330039F09FB7F8943AE0309396059FBF3FC0D9
S11333104FB7F89430919703909199034FBF6FB7CB
S1133320F8945091FE034091FF036FBF541709F1C5
S113333031111FC03FB7F89492E0909397035FB7A1
S1133340F8944091FE039091FF035FBF491739F051
S1133350E091FF03F0E0E250FC4F928101C090E065
S11333609093980393E4909390031092A1043FBF29
S11333700CC09150923058F49FB7F89435E43093D0
S1133380900331E03093A1049FBF01E001C000E04D
S1133390882341F08FB7F894209356028FBF80E1C1
S11333A00E940F021FB7F894809196058A3019F491
S11333B00E94C804E9C31FBF002309F4FBC68FB7EA
S11333C0F8941092220A1092210A10928C0391E030
S11333D0909396058FBF0E94FB0C882309F4EAC6DC
S11333E08FB7F89499E0909396058FBF0F900F9044
S11333F00F900F900F90DF91CF911F910F91FF903D
S1133400EF90DF90CF90BF90AF909F908F907F9080
S11334106F905F904F903F902F900C94B6048091E2
S1133420C1008F7B8093C1008091C1008F7780930E
S1133430C10010926305109279038091C1008860E5
S11334408093C1008091C10080618093C10080910C
S1133450C10080688093C1008FB7F89410929605DC
S113346010924703EEC38FE0EECE8091C100877FB8
S11334708093C1008091C1008F7E8093C1009AC661
S113348010925A02109259028FB7F8941091560272
S11334908FBF80915502811113E080915B0290915E
S11334A05C0220915402211185C620911002211141
S11334B081C620910A0430910B042817390709F0BA
S11334C079C610920B0410920A040E94BB0A1111CF
S11334D0B9CE80914B028823C9F00F900F900F90C2
S11334E00F900F90DF91CF911F910F91FF90EF906C
S11334F0DF90CF90BF90AF909F908F907F906F9010
S11335005F904F903F902F900C943F0710924A0287
S113351051C69FB7F8942091500230915102809186
S1133520A5029FBF9FB7F894E82FF0E0EE0FFF1FAE
S1133530E55FFD4F31832083882321F080915E0273
S11335408B7F03C080915E028D7F80935E02109218
S1133550530227C30E941107882309F42BC672CE95
S1133560D0904902D4FC26C680914602882309F4EF
S113357021C6C090680200910F0910911009C11072
S113358004C00F3FEFEF1E0789F00F3FFFEF1F0747
S113359069F021E0C21681F0A0901109B0901209DF
S11335A0C8010E94A602A80EB91E08C040E157E255
S11335B060E070E082E097C2A12CB12CE091480257
S11335C0F0E0EE0FFF1FE854FA4F60807180F301C2
S11335D0E080F180D7019C90C7010E94E2039091A2
S11335E06702891718F50E94C703D3018D919C9136
S11335F00E947A04C3010E9498040F900F900F90C8
S11336000F900F90DF91CF911F910F91FF90EF904A
S1133610DF90CF90BF90AF909F908F907F906F90EE
S11336205F904F903F902F900C943402C11052C57C
S1133630D7011F96AC921F971E96BC92D301ED91B1
S1133640FC91119784858F738487ED91FC91119778
S113365021812062828130E0382B218332838D2DB9
S1133660886080934902D0FE08C0ED91FC91948556
S1133670906494878E7F80934902D301ED91FC91ED
S11336800683178381E7838743EF490DBF0180E0F9
S11336900E947713811161C58091490280618093F2
S11336A0490288C580918B03882309F483C508E205
S11336B019E040E0FF24F39490918B038F2D89232C
S11336C0F1F0F80120813181118210828F2D8095D3
S11336D0982390938B03442319F0413041F00FC099
S11336E063E0C9014A830E94350A4A8108C028540C
S11336F0334029F480914102811110924102FF0C60
S11337004F5F0E5F1F4F4830B9F654C580910802D1
S1133710E82FF0E0EE0FFF1FE85DF64F6081718146
S113372041E00F900F900F900F900F90DF91CF9189
S11337301F910F91FF90EF90DF90CF90BF90AF90CB
S11337409F908F907F906F905F904F903F902F90BD
S11337500C94ED128091680281112CC52090A60270
S11337604090B6055090B70580900F0990901009CD
S11337707DEEE72E72E0F72EE4EFAE2EE2E0BE2EF1
S1133780CC24CA94DC2C2FEF3FEF3D832C8300E044
S113379010E0312C3214E9F1D70112968D919C91ED
S11337A013978F3FBFEF9B0761F18415950549F18E
S11337B0F70160807180C3010E94A602D7011496AC
S11337C04D915C9115979C01240F351F6814790461
S11337D051F45093120940931109F50180818093AB
S11337E0140969010EC0D5014C9141110AC0C29758
S11337F040F46C817D812617370718F43D832C83B0
S11338008701339478E0E70EF11C88E0A80EB11C20
S1133810C1CF2C813D812F3F5FEF350709F480C074
S11338206FEFC616D60699F080911409882341F0EB
S113383080911109909112090A962817390738F0D6
S11338408C819D810F968C159D0508F069C080912F
S11338502F0990913009A0913109B0913209019654
S1133860A11DB11D80932F0990933009A0933109B4
S1133870B0933209C4010E9492028F3F49F07EE066
S1133880879FF0011124EB5EFB4F8581877F858341
S1133890D8018D919C910E9492028F3F49F0BEE025
S11338A08B9FF0011124EB5EFB4F8581886085833B
S11338B0F801808191810E9492028F3F41F02EE0B5
S11338C0829FF0011124EB5EFB4F15861486D8010C
S11338D08D919C9111979093100980930F091496E0
S11338E08D919C91159790931209809311091796C5
S11338F08C9180931409C6012C813D81821B930B0A
S1133900459770F080E890E0A0E0B0E08093030277
S113391090930402A0930502B09306020E940D0343
S11339208091400281110AC0CD20C09439F46C8189
S11339307D816F3F7F4F11F00E943402109240024C
S113394039C480914102811135C4E0918D03F09115
S11339508E03108290910F0980911009E0918D03DC
S1133960F0918E039283818380916802E0908D03AD
S1133970F0908E03882359F09091110980911209D7
S1133980D70114969C93149713968C9321C080911D
S11339900F09909110098F3FBFEF9B0759F4909145
S11339A0110980911209F7019483838380818068CF
S11339B080830EC000911109109112090E94A60281
S11339C0800F911FD70114968C93149713969C9390
S11339D084E593E0892B19F086E593E002C084E541
S11339E093E020E030E0F12C40E00AE010E06EE0EB
S11339F0E62E6C01B5E0CB0ED11C80914402F90196
S1133A00E80FF11DCF010196B8010E94D029BC0135
S1133A10E89EF001E99EF00D1124EB5EFB4F9581C9
S1133A209370933089F4F62E90818181D60153E00E
S1133A30459FA00DB11D112411969C9311978C9351
S1133A40808512968C934F5F2930310529F5F092C9
S1133A5044028091450291E0980F9093450280932F
S1133A605503842F8F70809354038FEF80934E03FC
S1133A7080934F0380E780935303842F880F480F6C
S1133A80495F68E473E081E00E94771381110AC002
S1133A9081E0809341028EC32F5F3F4F473008F48B
S1133AA0ACCFD5CF843009F085C31092430282C3D2
S1133AB08FB7F8949091D2059093020293E090937B
S1133AC03E028FBF80910202882331F0813009F0D9
S1133AD071C36E9A769A02C06D9A759A4AE050E064
S1133AE060E070E084E00F900F900F900F900F90C3
S1133AF0DF91CF911F910F91FF90EF90DF90CF90C6
S1133B00BF90AF909F908F907F906F905F904F90F9
S1133B103F902F900C9468028FB7F8949091800393
S1133B209093010223E020933C028FBF8091010215
S1133B30809308099FB7F89480913402811126C0BC
S1133B4081E0809334021092A2049FBF9FB7F8943F
S1133B5080917A00806880937A009FBF1FB7F894A1
S1133B6080910002813081F480913402813021F40B
S1133B7081E20E940F0208C0823031F48091A204D5
S1133B8080930002209334021FBF14C38091A204C7
S1133B90882339F08091140480FD03C081608093F0
S1133BA014049FBF07C38FB7F8949091D1029093E8
S1133BB03A0293E090933B0244C080E005C07598BC
S1133BC06D988FE140CB81E00F900F900F900F9094
S1133BD00F90DF91CF911F910F91FF90EF90DF90A5
S1133BE0CF90BF90AF909F908F907F906F905F9099
S1133BF04F903F902F900C945D0C76986E9880E2D5
S1133C0022CB80E00E94210980913802813019F48E
S1133C1080E00E945D0C8FB7F894109238021092E5
S1133C2039020FC081E00E9421098091360281305F
S1133C3011F40E945D0C8FB7F89410923602109222
S1133C4037028FBFB7C28FB7F8949091A2049093B4
S1133C50000293E0909334028FBF8091000281119F
S1133C60A9C281E08093CA03109235090F900F9086
S1133C700F900F900F90DF91CF911F910F91FF90B4
S1133C80EF90DF90CF90BF90AF909F908F907F90F8
S1133C906F905F904F903F902F900C94AD071092CF
S1133CA0CA03F0909405E09095058091350981113F
S1133CB081C21FB7F89480913402833009F03EC06A
S1133CC08091000281113AC080911404882309F480
S1133CD04CC26091350270E0CB010196A1E0B0E0E6
S1133CE08130910511F480E090E0E82FE695E695A7
S1133CF0E695F0E0EC5EFB4F2081382F3770AD0184
S1133D0001C0440F3A95EAF7322F342331F040953D
S1133D10242320838093350206C08617970711F069
S1133D200196DECF8FEF8093A2048FEF8093000281
S1133D3081E08093340281E20E940F021FBF80E081
S1133D400E943702882309F495C0109108090FB71F
S1133D50F89480913C02833009F03FC080910102C5
S1133D6081133BC08091A802882309F409C26091A1
S1133D703D0270E0CB010196A1E0B0E081309105F5
S1133D8011F480E090E0282F26952695269530E0C2
S1133D90F901E855FD4F2081382F3770AD0101C07E
S1133DA0440F3A95EAF7322F342331F04095242317
S1133DB0208380933D0206C08617970711F0019671
S1133DC0DDCF8FEF809380038FEF8093010281E03A
S1133DD080933C0289E10E940F020FBF11114AC077
S1133DE08BE792E0892B19F0E3E8F2E002C0EBE7FD
S1133DF0F2E0F182E082909128028091290293837B
S1133E0082832091490221FFC4C129E120936F02DA
S1133E109093800280937F028091A40291E0980F96
S1133E209093A402809381028EEE8093820210927A
S1133E307C02E091CA09F091CB09309709F4A9C139
S1133E408FE692E09183808312828EE18383CF0197
S1133E500E94E42681119DC18091490282FF03C022
S1133E6084FF0E9434021092CB091092CA0981E0A7
S1133E708093620281E00F900F900F900F900F904B
S1133E80DF91CF911F910F91FF90EF90DF90CF9032
S1133E90BF90AF909F908F907F906F905F904F9066
S1133EA03F902F900C94370287E30E947925182FB6
S1133EB08F3F11F40C949115319EF0011124EB5EA7
S1133EC0FB4F808191810E949A25B701812F0E9426
S1133ED06325BB2011F40C949115EC81FD810081C4
S1133EE00D500D3118F4CF010C9602C080E090E023
S1133EF010E0F3E0BF9E001911091124080F191FE7
S1133F000E944A036C010E5F1F4FA12CF8013297E7
S1133F10808190E0982F882731962081822B8C1500
S1133F209D0579F4D8019C90C7010E9492028F3FAD
S1133F3041F0389EF0011124EB5EFB4F9186B6E010
S1133F40B783A3940D5F1F4FAB10E0CF0C94911572
S1133F508C819D810E941904EC81FD8180818D50AA
S1133F608D3140F4E43F2FEFF20721F0BF016C5E86
S1133F707F4F02C060E070E01E3E11F00C945B17AE
S1133F808C819D810E9403270C945D172091CC03A2
S1133F90222311F40C945B1780913709E82FF0E089
S1133FA0EE0FFF1FE75FF54FE080F1801182108272
S1133FB021502093CC038F5F809337098C3011F408
S1133FC010923709E114F10411F40C945B178091F9
S1133FD08603E82FF0E0EE0FFF1FE256FA4F008150
S1133FE011811182108291509093CD038F5F809341
S1133FF086038C3011F4109286030115110511F417
S11340000C945B17D801EFE21D92EA95E9F7EC8175
S1134010FD81B896DF0127E01D922A95E9F72C81EE
S11340203D81D70111963C932E933FEF12963C931A
S113403012975EE113965C93C7010E94E4268111F6
S11340403CC080910F09909110098F3F6FEF960744
S113405069F120916802213049F0E0901109F09053
S113406012090E94A6028E0D9F1D02C080E090E0FE
S1134070AC81BD811E962C911E9730E0322F2227F1
S11340801F964C91242B8217930780F040920302D1
S11340905092040260920502709206020E940D037F
S11340A06CE170E08CE190E00E9409098091BE040B
S11340B081FD0BC00E94340208C0C8010E947A042A
S11340C0C7010E9498040C945B17C8010C945D17F7
S11340D000E068C9F7013389A0919103B09192037C
S11340E08FE201900D928A95E1F78091910390916E
S11340F09203DC012C912D502D3140F4843FBFEF0D
S11341009B0721F0BC016C5E7F4F02C060E070E051
S11341103E3E11F40E9403279093920380939103EF
S113412060E0F301808191810F900F900F900F90C8
S11341300F90DF91CF911F910F91FF90EF90DF903F
S1134140CF90BF90AF909F908F907F906F905F9033
S11341504F903F902F900C94350A823059F5D3013B
S1134160ED91FC9189E2808348CA81E0809300024A
S11341701092340280917A008F7780937A00DECD9A
S113418081E08093010210923C02809339028CE119
S113419022CE12986FCEEC80FD80BEE0EB0EF11CB7
S11341A0EC81FD81018510E0102F00278085082B0C
S11341B00C94F8150F900F900F900F900F90DF91C3
S11341C0CF911F910F91FF90EF90DF90CF90BF9010
S11341D0AF909F908F907F906F905F904F903F90A3
S11341E02F9008951F920F920FB60F9211240BB6C1
S11341F00F920F931F932F933F934F935F936F935C
S11342007F938F939F93AF93BF93EF93FF930E94FA
S113421006028091B30090E001964091A90250916A
S1134220AA026091AB027091AC028A019B01080F53
S1134230191F211D311D0093A9021093AA02209376
S1134240AB023093AC0278940E947108FF91EF9115
S1134250BF91AF919F918F917F916F915F914F919A
S11342603F912F911F910F910F900BBE0F900FBE96
S11342700F901F9018951F920F920FB60F92112452
S11342800BB60F922F933F934F935F936F937F934C
S11342908F939F93AF93BF93EF93FF930E94060274
S11342A0FF91EF91BF91AF919F918F917F916F910A
S11342B05F914F913F912F910F900BBE0F900FBEC6
S11342C00F901F9018951F920F920FB60F92112402
S11342D00BB60F922F933F934F935F936F937F93FC
S11342E08F939F93AF93BF93EF93FF932EB5E0917A
S11342F02F05F0913005309739F0809106049091A4
S11343000704E80FF91F20838091060490910704A5
S1134310019690930704809306048CB58F778CBD27
S11343208091060490910704609165027091660281
S11343308617970708F03FC02091CC093091CD092A
S1134340E0912F05F0913005AC01465F5F4F641793
S1134350750708F4AB014150510984179507C8F457
S11343602115310549F0D901A80FB91F6C916EBD13
S11343700DB407FEFDCF04C01EBC0DB407FEFDCF77
S11343806EB5309721F0DF01A80FB91F6C93019629
S1134390E4CF4CB540684CBD2115310531F0F9012D
S11343A0E80FF91F20812EBD01C01EBC90930704A5
S11343B08093060411C01092300510922F051092BC
S11343C0CD091092CC0910926602109265021092E7
S11343D00704109206048EB5FF91EF91BF91AF913F
S11343E09F918F917F916F915F914F913F912F9109
S11343F00F900BBE0F900FBE0F901F9018957894DE
S11344001F920F920FB60F9211240BB60F922F9397
S11344103F934F935F936F937F938F939F93AF9348
S1134420BF93EF93FF9380916F008D7F80936F0014
S113443078948FB7F89490916005913019F492E0D4
S1134440909360058FBF0E94A913FF91EF91BF91D4
S1134450AF919F918F917F916F915F914F913F9118
S11344602F910F900BBE0F900FBE0F901F901895B9
S113447078941F920F920FB60F9211240F900FBED3
S11344800F901F90189578941F920F920FB60F9269
S113449011240F900FBE0F901F90189578941F92BF
S11344A00F920FB60F9211240BB60F922F933F93D6
S11344B04F935F936F937F938F939F93AF93BF9328
S11344C0EF93FF93E6E8F0E08081918120813181D0
S11344D08FB7F89430938A032093890391E09093E3
S11344E00E098FBF0E94A913FF91EF91BF91AF9165
S11344F09F918F917F916F915F914F913F912F91F8
S11345000F900BBE0F900FBE0F901F9018957894CC
S11345101F920F920FB60F9211242F938F939F9394
S1134520AF93BF932FB7F89480910C0490910D042E
S1134530A0910E04B0910F040196A11DB11D8093AA
S11345400C0490930D04A0930E04B0930F042FBF9A
S1134550BF91AF919F918F912F910F900FBE0F90AC
S11345601F9018951F920F920FB60F9211240BB63D
S11345700F922F933F934F935F936F937F938F93F8
S11345809F93AF93BF93EF93FF938091C00087FFF6
S11345904AC06091C6002091120430911304211581
S11345A0310551F18091FE099091FF09AC014F5FF3
S11345B05F4F5093FF094093FE09F901E80FF91F7B
S11345C060832091FE093091FF098091230A909124
S11345D0240A2817390738F1109213041092120490
S11345E0809163058330F9F08091C1008F778093C7
S11345F0C1001092630517C06E3719F460E081E0C2
S113460010C080914E026D3721F4826080934E0277
S11346100AC081FF05C08D7F80934E0280E2682727
S113462080E00E944105FF91EF91BF91AF919F916E
S11346308F917F916F915F914F913F912F910F9047
S11346400BBE0F900FBE0F901F90189578941F9279
S11346500F920FB60F9211240BB60F92EF92FF92A6
S11346600F931F932F933F934F935F936F937F9376
S11346708F939F93AF93BF93CF93DF93EF93FF9366
S1134680809177039091780320911709309118094C
S113469082179307D0F42091930330919403AC01D3
S11346A04F5F5F4F5093780340937703F901E80F0E
S11346B0F91F80819FB7F8948093C6008091C00051
S11346C080648093C0009FBFB2C010929403109284
S11346D09303109279038091C1008F7B8093C10072
S11346E00FB7F89480914E02982F9170F92E80FFA5
S11346F00AC08E7F80934E0280919B058093D202E4
S11347000E94A90C93C0E09196058E2F90E0FC01C5
S11347103197E830F10508F084C0E757FF4F0C9457
S1134720312A809190030E94E90C182F83E0809332
S11347309605609190030AC0809133090E94E90CA8
S1134740182F83E080939605609133098091210AA4
S11347509091220A0E94F6049093220A8093210ADF
S11347605EC0E091A104F0E0EE0FFF1FE956FC4F9C
S113477081810E94E90C182FE090A104CE2DD0E095
S1134780CC0FDD1FFE01E956FC4F61818091210AA7
S11347909091220A0E94F6049093220A8093210A9F
S11347A090918C039F5F90938C0381E0E8121EC06C
S11347B080915702E0915B02F0915C02E80FF11DD9
S11347C020818F5F8093570230915802381720F46C
S11347D082E08093990301C0F22EC956DC4F888190
S11347E0823021F09F3F11F0F98219C084E012C099
S11347F08091210A0E94E90C182F85E00BC080915A
S1134800220A0E94E90C182F86E004C00E94FB0CC7
S1134810182F87E08093960502C088E003C0112317
S113482029F089E0809396050E94B6040FBFFF919A
S1134830EF91DF91CF91BF91AF919F918F917F9134
S11348406F915F914F913F912F911F910F91FF9025
S1134850EF900F900BBE0F900FBE0F901F90189506
S11348601F920F920FB60F9211248F938091C8005C
S113487087FD8091CE008F910F900FBE0F901F90F7
S1134880189578941F920F920FB60F9211240F90DF
S11348900FBE0F901F90189578941F920F920FB629
S11348A00F9211240F900FBE0F901F9018957894BB
S11348B01F920F920FB60F9211240F900FBE0F90FC
S11348C01F90189578941F920F920FB60F9211248F
S11348D00F900FBE0F901F90189578941F920F920F
S11348E00FB60F9211248F939F938091960090910D
S11348F097009F918F910F900FBE0F901F90189566
S113490078941F920F920FB60F9211242F938F93C6
S11349109F932FB7F8948091870390918803019611
S113492090938803809387032FBF9F918F912F913A
S11349300F900FBE0F901F9018951F920F920FB6F5
S11349400F9211240F900FBE0F901F9018951F9275
S11349500F920FB60F9211240F900FBE0F901F905D
S113496018951F920F920FB60F9211240F900FBE3D
S11349700F901F9018951F920F920FB60F9211244B
S11349800F900FBE0F901F9018951F920F920FB6A5
S11349900F9211240F900FBE0F901F9018951F9225
S11349A00F920FB60F9211240F900FBE0F901F900D
S11349B018951F920F920FB60F9211240F900FBEED
S11349C00F901F9018951F920F920FB60F921124FB
S11349D00F900FBE0F901F9018951F920F920FB655
S11349E00F9211240BB60F922F933F934F935F9323
S11349F06F937F938F939F93AF93BF93EF93FF93A3
S1134A00209178003091790078944FB7F894809190
S1134A10E80281FB992790F981704FBF811122C070
S1134A2080917A00877F80937A008091CA038130D5
S1134A3019F0823091F034C0911107C08DE790E0F5
S1134A400E947A060E94AD072BC0309395052093EF
S1134A50940582E20E940F0223C0992379F31092F5
S1134A60CA031EC08FB7F8948FBF2FB7F8948091F4
S1134A707A0086FB992790F9877F806190FB86F9FD
S1134A808F7780937A00877F80618F7B8F77809385
S1134A907A00877F80618F7B806880937A002FBF44
S1134AA0FF91EF91BF91AF919F918F917F916F9102
S1134AB05F914F913F912F910F900BBE0F900FBEBE
S1134AC00F901F9018952EE0829FC0011124FC01C5
S1134AD0EB5EFB4F7183608312821382148285E044
S1134AE0858386E0868387831086118613861286E3
S1134AF00895EAE1F4E040E050E09FEF20E03081E7
S1134B00632F6370633049F433FD07C06581768198
S1134B106417750710F0AB01922F2F5F3E962A3071
S1134B2071F7282F30E04217530710F0892F0895AA
S1134B308FEF0895CF93DF93EC010E94DA04282FBE
S1134B409091A60289131CC080910F0990911009BD
S1134B508C179D0799F58FEF9FEF90931009809321
S1134B600F09109212091092110910921309109250
S1134B70140981E080934002DF91CF910C943102BB
S1134B8091509093A60288E02917F0F6E22FF0E006
S1134B90DF0133E0AA0FBB1F3A95E1F7A351BD4FE4
S1134BA043E0EE0FFF1F4A95E1F7EB50FD4F382F1E
S1134BB001900D923A95E1F72F5FE6CFDF91CF9107
S1134BC008952F923F924F925F926F927F928F92AD
S1134BD09F92AF92BF92CF92DF92EF92FF920F9388
S1134BE01F93CF93DF93282F30E05EE0859FF00181
S1134BF01124EB5EFB4F858182FF03C062838B7FB0
S1134C0085838EE0829FF001839FF00D1124EB5E7B
S1134C10FB4F8281962F981B892F628393819F5F1C
S1134C20938396E09683882369F094818B3020F4F3
S1134C309150890F848306C0148281E08383178294
S1134C40118610868EE0829FF001839FF00D11245F
S1134C50EB5EFB4F8381833008F4A3C04080518016
S1134C60CAE1D4E08EE1E82E84E0F82EEDE1F4E030
S1134C700CE114E02BE134E049E09AE0C92ED12C98
S1134C80662463945EEF752E6AE0262EDF01189782
S1134C908D919C918415950509F075C0888180FFDC
S1134CA072C0D9019C91992311F091509C93D80121
S1134CB09C91992311F091509C93D9019C9191114D
S1134CC00BC0D8019C91911107C0B1E08B27888358
S1134CD0D7011C9210822AC0826088834F01B5E0FC
S1134CE08B1A9108D4018C915F01B4E0AB1AB1081E
S1134CF0D5016C91680F633008F463E03080BFEF36
S1134D008B9FC001112470E00E94D029CB01992708
S1134D1059E0359E800D911D11240596B6010E941F
S1134D20D0296083D4011C92D5011C92D701BC9078
S1134D3060816623C1F0BB20B1F070E0C3010E9422
S1134D40BC29269EC001279E900D11246B2D70E076
S1134D500E94BC296A5071096F3F710529F020F047
S1134D606CE370E001C06CE3A281B3814A9FC0018F
S1134D704B9F900D11240596860F911DB6010E943C
S1134D80BC29738362832E96BEE0EB0EF11C3E9623
S1134D90025F1F4F225F3F4F54E0C63AD50709F028
S1134DA075CFDF91CF911F910F91FF90EF90DF901E
S1134DB0CF90BF90AF909F908F907F906F905F90B7
S1134DC04F903F902F900895AC01209146022D30D2
S1134DD0C0F490914702E92FF0E0EE0FFF1FE85472
S1134DE0FA4F5183408381E0890F8D3019F080930D
S1134DF0470202C0109247022F5F2093460280E0D0
S1134E00089581E00895CF93DF93EC01FB019FB7F0
S1134E10F89422B182E0822782B99FBF208130E0DA
S1134E20322F22278181282B3F932F93228130E038
S1134E30322F22278381282B3F932F938AE292E0FB
S1134E409F938F930E94772A0E94BF130F900F9015
S1134E500F900F900F900F90CE01DF91CF91089596
S1134E60CFB7F89414BE88E10FB6F894809360002D
S1134E70109260000FBE43E250E06FEF70E08EEAE4
S1134E8092E00E94702A8FEF80932C098093060A87
S1134E9056985E9854985C9880916F008F7D8093AB
S1134EA06F00209A0E94B701279A0E94B5010E9ABA
S1134EB0169A8BE993E09093A3028093A202109236
S1134EC085038AE580933D0381E08093810080E23D
S1134ED08093B60083E08093B100209184003091E8
S1134EE085008AE74091840050918500421753075A
S1134EF008F481509A018111F5CF8091B20090910C
S1134F00B2009817E1F320918400309185008091DC
S1134F10B2009091B2009817E1F3809184009091CF
S1134F2085004096821B930B55E0969587955A957C
S1134F30E1F790932E0980932D091092B1001092FD
S1134F4081001092B6001092B20010928500109267
S1134F5084008FEF87BB86BB8091B6008571E1F733
S1134F600A9A099A089A129A119A109A18B88FEF05
S1134F7087B90C98149880E0877F8F7E8F7D8F7B14
S1134F808F7780937A00109295001092940080910C
S1134F90710081608093710080919100887F8260AC
S1134FA080939100109285001092840080916F008C
S1134FB0816080936F0080918100887F82608093FC
S1134FC081000E94F4018F3F19F00E94D813F9CF99
S1134FD0109214041092A8021092A3041092FD03DC
S1134FE01092670284E695E0E9E0FAE081939193F8
S1134FF004962AE0E132F207C9F78CE08093CC03EF
S11350001092370983ED95E0EEE9F5E081939193F1
S11350108F9625E0E63BF207C9F78CE08093CD0339
S113502010928603109243021092420210922F09AA
S113503010923009109231091092320910926802CC
S11350408FEF9FEF9093100980930F09109212092C
S11350501092110910921309109214091092A602C9
S113506084E593E0892B19F086E593E002C084E59A
S113507093E090938E0380938D038CE793E0909359
S1135080CB098093CA0981E395E0909392038093BE
S113509091031092A40280E090E0FC01EB5EFB4FD0
S11350A015820E968C389105C1F78AE192E09093AF
S11350B02D0A80932C0A12E0D6E060912D0970919C
S11350C02E09CB01A0E0B0E0BC01CD012CE0660FBD
S11350D0771F881F991F2A95D1F7C12C31EED32E43
S11350E0E12CF12CA70196010E94E42921503109F9
S11350F02093C4003093C5001093C000D093C20025
S11351001092C10060912D0970912E09CB01A0E08D
S1135110B0E0BC01CD014CE0660F771F881F991FDA
S11351204A95D1F7A70196010E94E429215031093B
S11351302093CC003093CD001093C800D093CA00C4
S11351401092C90084E490E09093160980931509A5
S113515010929703109299038AE080939605109217
S11351608C0310929003109233091092220A109229
S1135170210A1092000A1092A1040E94E2011092E6
S1135180FF031092FE0310924A028FEF80938F0365
S11351900E949E068091B60080628093B600809142
S11351A0B60081FDFCCF82E08093B0008091B60010
S11351B080FDFCCF83E08093B1008091B60083FD35
S11351C0FCCF86EE8093B300809170008260809360
S11351D070000E9471082091280230912902C901AF
S11351E00196A0E0B0E08093810390938203A093A2
S11351F08303B09384038DE399E090936A028093D0
S113520069028CE699E090936C0280936B028BE9BF
S113521099E090936E0280936D028FEF9FEF9093CD
S11352201A098093190990931C0980931B09909380
S11352301E0980931D099093200980931F09909360
S11352402209809321092295207F20936302809371
S1135250EC020E94F4018F3F19F00E94D813F9CF99
S1135260CFBF78948FB7F894909196059A3031F027
S113527090914703943011F08FBF04C08FBF8DE02D
S11352800E940F020E94B90180914503811117C049
S113529080916402811113C08091CE09813029F478
S11352A08091600581110BC002C0853041F083E01C
S11352B0809364020E94A91385E0809345030E94B1
S11352C03412CFB7F8940E94F4018F3F09F050C014
S11352D080917000837089F08091B6008A71E1F743
S11352E08091B3009091B200891B8C3040F0809182
S11352F0B200853F20F483E003C085E001C082E072
S1135300E0916E00E670E9F490916F009E72E1F412
S1135310E0917100EE72A9F40CB407FC15C09091F1
S1135320C100987189F4E091C900E87151F4909139
S1135330BC0092FD09C090917A0097FD04C0E5E09D
S113534003C0E0E001C0E1E093B78E1708F4E82F52
S1135350F0E0EE5DFE4F8491E92FE07FE160E82B01
S1135360E3BF78948895F89483B78E7F83BFABCFDF
S1135370CFBF0E94D813A5CFAA1BBB1B51E107C006
S1135380AA1FBB1FA617B70710F0A61BB70B881FD1
S1135390991F5A95A9F780959095BC01CD01089560
S11353A097FB072E16F4009407D077FD09D00E94CE
S11353B0BC2907FC05D03EF4909581959F4F089534
S11353C0709561957F4F0895A1E21A2EAA1BBB1B0D
S11353D0FD010DC0AA1FBB1FEE1FFF1FA217B307BD
S11353E0E407F50720F0A21BB30BE40BF50B661FD3
S11353F0771F881F991F1A9469F760957095809597
S113540090959B01AC01BD01CF010895E894DF9311
S1135410CF93FC01DB010E94582A7F936F93E9012B
S11354209A01AC01BF93AF933F932F93DF010E9486
S1135430582A26F46C1B7D0B820B930B9E01EB0107
S1135440FC010E94672AAF91BF912F913F910E9466
S1135450672ABE01CF01F9012F913F91CF91DF91CE
S11354600895EE0FFF1F0024001C0BBE0790F69159
S1135470E02D099497FB10F8169400080F93083058
S113548098F00850232F342F452F562F672F782F4D
S1135490892F902DF4CF05949795879577956795E7
S11354A057954795379527950A95AAF70F9108952B
S11354B0A29FB001B39FC001A39F700D811D112451
S11354C0911DB29F700D811D1124911D08950E949C
S11354D0582A460F571FC81FD91F08F4319608953C
S11354E0DC0101C06D9341505040E0F70895CF9323
S11354F0DF93CDB7DEB7FE01359661917191AF01AF
S113550080912C0A90912D0A0E94892ADF91CF91D3
S113551008952F923F924F925F926F927F928F9253
S11355209F92AF92BF92CF92DF92EF92FF920F932E
S11355301F93CF93DF93CDB7DEB72C970FB6F894B4
S1135540DEBF0FBECDBF7C016B018A01FC01178257
S11355501682838181FFBDC1CE0101964C01F70102
S11355609381F60193FD859193FF81916F018823C7
S113557009F4ABC1853239F493FD859193FF819190
S11355806F01853229F4B70190E00E949A2CE7CF8D
S1135590512C312C20E02032A0F48B3269F030F40D
S11355A0803259F0833269F420612CC08D3239F095
S11355B0803339F4216026C02260246023C028602F
S11355C021C027FD27C030ED380F3A3078F426FF8C
S11355D006C0FAE05F9E300D1124532E13C08AE0FA
S11355E0389E300D1124332E20620CC08E3221F4EB
S11355F026FD6BC1206406C08C3611F4206802C0FD
S1135600883641F4F60193FD859193FF81916F01F2
S11356108111C1CF982F9F7D9554933028F40C5F4E
S11356201F4FFFE3F9830DC0833631F0833771F0E8
S1135630833509F05BC022C0F801808189830E5F45
S11356401F4F44244394512C540115C03801F2E0F7
S11356506F0E711CF801A080B18026FF03C0652D78
S113566070E002C06FEF7FEFC5012C870E948F2C82
S11356702C0183012C852F77222E17C03801F2E0EC
S11356806F0E711CF801A080B18026FF03C0652D48
S113569070E002C06FEF7FEFC5012C870E94842C5D
S11356A02C012C852068222E830123FC1BC0832D12
S11356B090E048165906B0F4B70180E290E00E94E9
S11356C09A2C3A94F4CFF50127FC859127FE819119
S11356D05F01B70190E00E949A2C31103A94F1E0F6
S11356E04F1A51084114510471F7E5C0843611F082
S11356F0893639F5F80127FF07C0608171818281FD
S113570093810C5F1F4F08C060817181882777FDEA
S11357108095982F0E5F1F4F2F76B22E97FF09C0EA
S113572090958095709561957F4F8F4F9F4F20681E
S1135730B22E2AE030E0A4010E94CC2CA82EA81896
S113574044C0853729F42F7EB22E2AE030E025C0EC
S1135750F22FF97FBF2E8F36C1F018F4883579F017
S1135760B4C0803719F0883721F0AFC02F2F2061E3
S1135770B22EB4FE0DC08B2D8460B82E09C024FF58
S11357800AC09F2F9660B92E06C028E030E005C0FD
S113579020E130E002C020E132E0F801B7FE07C0AA
S11357A060817181828193810C5F1F4F06C060818B
S11357B0718180E090E00E5F1F4FA4010E94CC2C09
S11357C0A82EA818FB2DFF77BF2EB6FE0BC02B2DDD
S11357D02E7FA51450F4B4FE0AC0B2FC08C02B2DD1
S11357E02E7E05C07A2C2B2D03C07A2C01C0752C7B
S11357F024FF0DC0FE01EA0DF11D8081803311F4F8
S1135800297E09C022FF06C07394739404C0822FBA
S1135810867809F0739423FD13C020FF06C05A2C28
S1135820731418F4530C5718732C731468F4B701D9
S113583080E290E02C870E949A2C73942C85F5CFFB
S1135840731410F4371801C0312C24FF12C0B701AF
S113585080E390E02C870E949A2C2C8522FF17C0AD
S113586021FF03C088E590E002C088E790E0B7011B
S11358700CC0822F867859F021FD02C080E201C05D
S11358808BE227FD8DE2B70190E00E949A2CA514CB
S113589038F4B70180E390E00E949A2C5A94F7CF31
S11358A0AA94F401EA0DF11D8081B70190E00E94F1
S11358B09A2CA110F5CF332009F451CEB70180E220
S11358C090E00E949A2C3A94F6CFF7018681978152
S11358D002C08FEF9FEF2C960FB6F894DEBF0FBE79
S11358E0CDBFDF91CF911F910F91FF90EF90DF908B
S11358F0CF90BF90AF909F908F907F906F905F906C
S11359004F903F902F900895FC0105906150704096
S11359100110D8F7809590958E0F9F1F0895FC0174
S11359206150704001900110D8F7809590958E0FCA
S11359309F1F08950F931F93CF93DF93182F092F61
S1135940EB018B8181FD03C08FEF9FEF20C082FFAD
S113595010C04E815F812C813D81421753077CF436
S1135960E881F9819F012F5F3F4F3983288310839A
S113597006C0E885F985812F0995892B29F72E81A1
S11359803F812F5F3F4F3F832E83812F902FDF91E5
S1135990CF911F910F910895FA01AA27283051F150
S11359A0203181F1E8946F936E7F6E5F7F4F8F4F4C
S11359B09F4FAF4FB1E03ED0B4E03CD0670F781FAB
S11359C0891F9A1FA11D680F791F8A1F911DA11D90
S11359D06A0F711D811D911DA11D20D009F46894C9
S11359E03F912AE0269F11243019305D3193DEF671
S11359F0CF010895462F4770405D4193B3E00FD027
S1135A00C9F7F6CF462F4F70405D4A3318F0495D11
S1135A1031FD4052419302D0A9F7EACFB4E0A695F4
S1135A209795879577956795BA95C9F70097610516
S1135A30710508959B01AC010A2E0694579547956C
S1135A4037952795BA95C9F7620F731F841F951F61
S10B5A50A01D0895F894FFCF96
S1135A58010102800000000102D104D1040005FF05
S1135A6801FFFFFFFFFFFF2201000000000200000A
S1135A780000750700000000010025783A20257809
S1075A88210A0000EB
S9030000FC
