:100000000C9489010C94A8010C94A8010C94A801EB
:100010000C94A8010C94A8010C94A8010C94A801BC
:100020000C94A8010C94A8010C94A8010C94A801AC
:100030000C94A8010C946A1D0C94A8010C94B31D97
:100040000C94C61E0C94771E0C94B01E0C94BB1E10
:100050000C94FF1E0C94A8010C94A8010C94A80108
:100060000C94DB1D0C942A1F0C94A8010C949E1F69
:100070000C94A8010C94A8010C94A8010C94E52000
:100080000C94C4200C94CF200C94DA200C94F8200B
:100090000C94A8200C94A8010C94B9200C94A801ED
:1000A0000C94A8010C94A8010C94A8010C94A8012C
:1000B0000C94A8010C94A8010C94A8010C94A8011C
:1000C0000C94A8010C94A8010C94A80170128E1233
:1000D00032139E13E915F3153B163017D516E916A2
:1000E00062178617AE178218A618A818B318FC183E
:1000F0001E192419DE19121A361A2D1B0920142074
:100100002920702077207E2085208C2000020E067A
:100110000C0400002110422063308440A550C660CA
:10012000E770088129914AA16BB18CC1ADD1CEE1B4
:10013000EFF13112100273325222B5529442F7722B
:10014000D662399318837BB35AA3BDD39CC3FFF304
:10015000DEE36224433420040114E664C774A4443B
:1001600085546AA54BB528850995EEE5CFF5ACC554
:100170008DD55336722611163006D776F66695560B
:10018000B4465BB77AA719973887DFF7FEE79DD7A4
:10019000BCC7C448E5588668A7784008611802289B
:1001A0002338CCC9EDD98EE9AFF9488969990AA9F4
:1001B0002BB9F55AD44AB77A966A711A500A333A6B
:1001C000122AFDDBDCCBBFFB9EEB799B588B3BBB44
:1001D0001AABA66C877CE44CC55C222C033C600CFB
:1001E000411CAEED8FFDECCDCDDD2AAD0BBD688D94
:1001F000499D977EB66ED55EF44E133E322E511E4B
:10020000700E9FFFBEEFDDDFFCCF1BBF3AAF599FE3
:10021000788F8891A981CAB1EBA10CD12DC14EF183
:100220006FE18010A100C230E320045025404670E9
:100230006760B9839893FBA3DAB33DC31CD37FE314
:100240005EF3B1029012F322D23235421452776239
:100250005672EAB5CBA5A89589856EF54FE52CD5E4
:100260000DC5E234C324A014810466744764245489
:100270000544DBA7FAB79987B8975FE77EF71DC7F4
:100280003CD7D326F2369106B016576676761546D9
:1002900034564CD96DC90EF92FE9C899E9898AB944
:1002A000ABA94458654806782768C018E108823829
:1002B000A3287DCB5CDB3FEB1EFBF98BD89BBBAB54
:1002C0009ABB754A545A376A167AF10AD01AB32A79
:1002D000923A2EFD0FED6CDD4DCDAABD8BADE89DA4
:1002E000C98D267C076C645C454CA23C832CE01CC9
:1002F000C10C1FEF3EFF5DCF7CDF9BAFBABFD98F34
:10030000F89F176E367E554E745E932EB23ED10E18
:10031000F01E11241FBECFEFD1E2DEBFCDBF12E031
:10032000A0E0B2E0EEECF1E500E00BBF02C0079008
:100330000D92A033B107D9F719E0A0E3B2E001C0F4
:100340001D92AD3FB107E1F70E94F9220C94E52818
:100350000C9400002F980895289A08959FB7F89458
:1003600080916D058F5F80936D059FBF08950DB4DB
:1003700007FEFDCF8EB50895982F0DB407FEFDCF73
:100380008EB59EBD0895289808958627082E8295DB
:10039000807F8025092E982F82958F70082686955C
:1003A00098278927880F880F880F80250895E7ED03
:1003B000F8E01182108284E08093280310926C058B
:1003C0001092F10810925B031092EF031092EE036B
:1003D00008958091FA088F3F69F0E82FF0E0E35626
:1003E000FD4F90819093FA089F3F11F49093D309A9
:1003F0009FEF908308958091B0008093B00080912A
:10040000B60081FDFCCF08959C01E2EFF3E090E09F
:10041000858180FF05C0408151814217530731F02B
:100420009F5F3E969A30A1F78FEF0895892F089528
:100430000E9404028F3F61F09EE0899FF001112429
:10044000EE50FC4F858181FF03C08285938508951E
:100450008FEF90E008954F925F926F927F928F920C
:100460009F92AF92BF92CF92DF92EF92FF920F9343
:10047000CF93CFB7F894609161037091620380913C
:100480006303909164032EE433E840E050E00E945F
:10049000C12529013A0100E20E94F72549015A01CC
:1004A000D301C201B695A79597958795BC01CD015B
:1004B000680D791D8A1D9B1D97FF09C0DC01CB01CA
:1004C000BF77BC01CD016F5F7F4F8F4F9F4F609310
:1004D0006103709362038093630390936403CFBFBF
:1004E000CF910F91FF90EF90DF90CF90BF90AF90A2
:1004F0009F908F907F906F905F904F9008959FB7DF
:10050000F894E82FF0E0E356FD4F20812F3F99F457
:10051000E091D309E81779F02091FA082F3F19F4F8
:100520008093FA0804C0F0E0E356FD4F8083809387
:10053000D30980E001C085E09FBF089582E00C945C
:100540007F0286E10C947F0283E10C947F022FB737
:10055000F8943091B2008091980290919902A09104
:100560009A02B0919B02B99B0BC04091B3003091AD
:10057000B2000196A11DB11D840F911DA11DB11DD9
:10058000BC01CD01630F711D811D911D2FBF089509
:10059000CF92DF92EF92FF92CF93C82F6A017B0137
:1005A0000E94A70229E0C29FF0011124DF01A15897
:1005B000BB4F6D937D938D939C9313971496CD921F
:1005C000DD92ED92FC921797E957FB4F8081816095
:1005D0008260808386E0CF91FF90EF90DF90CF9094
:1005E0000C947F02CF92DF92EF92FF9280910002F3
:1005F00090910102A0910202B0910302B695A795D5
:10060000979587958093200390932103A0932203CD
:10061000B09323030E942B02C0902003D0902103AB
:10062000E0902203F0902303A70196010E949F25EA
:10063000AB01BC014C0D5D1D6E1D7F1D4093200361
:100640005093210360932203709323031092D608E2
:1006500080E0FF90EF90DF90CF900C94C8022FB70E
:10066000F89480911502909116022FBF08950F9370
:100670001F932FB7F8944091EA035091EB036091D8
:10068000EC037091ED038091840090918500B09B04
:1006900008C04F5F5F4F6F4F7F4F809184009091F4
:1006A00085002FBFBA0155274427A0E0B0E08A019A
:1006B0009B01082B192B2A2B3B2BC901B8011F9139
:1006C0000F91089540918400509185006FB7F89480
:1006D00020918400309185002D5F3F4FF901E41B8C
:1006E000F50BE817F90718F49C01240F351F2115A5
:1006F000310511F421E030E02150310930938900B7
:100700002093880082E086BB80916F008260809396
:100710006F006FBF08950F931F93CF93DF938C01EA
:100720008FB7F894C0916905D0916A059E012F5E3C
:100730003E4F30936A05209369058FBF84E00E9485
:100740007F02CE01B8010E9477258A5D9E4FDF911E
:10075000CF911F910F91089590913802E92FF0E009
:10076000EE0FFF1FE857FA4F40815181209136026A
:10077000222359F09F5F9D3019F09093380202C0F8
:1007800010923802215020933602CA010895DC01EC
:10079000809157024091DB0390E055E0981769F192
:1007A000E92FE40FE37050962C91509730E0322FF0
:1007B000222751966C915197262B5E9FF0011124B0
:1007C000EA54FD4F6081718126173707A1F45296D4
:1007D0003C915297228132130EC01D963C911D9779
:1007E0002481321308C053963C91539723813213CE
:1007F00002C0892F08959F5FD1CF0895CF93DF93D3
:10080000EC01809157028430A1F5CE010E94C7030C
:10081000837049F48091DB0390E0019683709927FF
:100820008093DB0323C095E02091DB0330E0280FA9
:10083000311DA90143705527949FD001959FB00D9C
:100840001124AA54BD4F2F5F3F4F23703327929F2F
:10085000F001939FF00D1124EA54FD4F292F0190D0
:100860000D922A95E1F78F5F8430F1F683E0809353
:100870005702409157022091DB03842F90E0820FB2
:10088000911D8370992725E0289FF001299FF00D85
:100890001124EA54FD4F288930E0322F222789891C
:1008A000282B318320838A8982838D8584838B8959
:1008B00083834F5F40935702DF91CF910895AC013E
:1008C0009091AB039C30B8F480916603292F30E0FF
:1008D000280F311D2C30310514F02C503109220F16
:1008E000331FF901E259FA4F518340839F5F909380
:1008F000AB0380E0089581E00895AC019091AA03D4
:100900009C30B8F480910409292F30E0280F311D64
:100910002C30310514F02C503109220F331FF9010E
:10092000EA52F64F518340839F5F9093AA0380E081
:10093000089581E00895CF93CFB7F8948091CD09C1
:10094000811108C08CE00E947F02811103C081E008
:100950008093CD09CFBFCF910895809166058A30ED
:1009600021F480912803843021F081E080934F02AC
:1009700008958EE00E947F0210924F020895BC01FC
:10098000409196026F3F8FEF780721F02FEC32E015
:1009900090E00DC0842F0895285F3F4FF9013897EC
:1009A0000190F081E02DE617F70719F09F5F94138F
:1009B000F3CF892F0895E2E1F1E06927660FF11D79
:1009C000E60FF11DC895982F802D3196C89590257A
:1009D00008952091430290914E0221112FC0811160
:1009E0002DC081E08093430220910C0220934202AB
:1009F000292F217020939502209106023091070241
:100A0000309341022093400220914D0220933F02F7
:100A1000292F21708227967EE82FF0E0EE0FFF1F2E
:100A2000E85FFD4F20813181309307022093060259
:100A3000982B90934E0281E10C947F0290FF02C0AC
:100A40009B7F01C09D7F90934E020895CF93DF93CB
:100A5000D82FC62F80912803813061F028F0823092
:100A600099F0833019F1E2C0DD2309F425C10E9419
:100A7000D701ECC0D11120C16093F1088CEB860F37
:100A8000823008F0D3C0E4C0D111D0C060935B03C2
:100A90008091EE039091EF030E94DB049093EF03AB
:100AA0008093EE0383E08093280306C180916C0558
:100AB0008F3F09F4BBC0DD2309F454C0823008F431
:100AC000B5C0E091D708EE2311F0E15001C0E2E09B
:100AD000AE2FB0E0A952B74F12962C9130E0322FD2
:100AE0002227EE2311F0E15001C0E2E0F0E0E952EC
:100AF000F74F8281282B8091EE039091EF03281706
:100B0000390709F093C080E00E94E9048091F10860
:100B10008434A9F420915B03E091DC039091DD0320
:100B200081E08E0F863008F4BDC0992341F0F0E0DB
:100B3000E452FC4F22831092DC030E949B040E942B
:100B4000D70180913E028D7F80933E0280914F02BB
:100B5000882309F4B1C084E080932803DF91CF910A
:100B60000C94AD04823008F44CC0E091D808F0E059
:100B7000E952F74F928180914E02282F26952695B3
:100B80002695237030E02130310521F022303105E7
:100B900079F01EC0877E806180934E02992311F008
:100BA00080E001C085E080934D0290930C0210C05C
:100BB00080914D028F3260F4E0910602F0910702BD
:100BC000E80FF11D908380914D028F5F80934D025D
:100BD0008091D808E82FF0E0E952F74F62818F5FEB
:100BE000833018F48093D80802C01092D8088091FE
:100BF000EE039091EF030E94DB049093EF03809348
:100C0000EE038091D708E82FF0E0E952F74FC28356
:100C10008F5F833018F48093D70802C01092D708F2
:100C200080916C058F5F80936C0546C00E94D70150
:100C300080913E028D7F80933E0281E00E94E90414
:100C400080914F02811187CFDD23B1F181E02BCF5D
:100C50008091EE039091EF030E94DB049093EF03E9
:100C60008093EE03C43411F482E001C083E08093EA
:100C7000280390914E0290FF04C092FDD7CF94605C
:100C800003C091FDD3CF926090934E0280914E02AB
:100C9000877E886080934E0210924D028FEF809382
:100CA0000C020AC0891709F44ACFF0E0E452FC4F65
:100CB00022838093DC0341CFDF91CF910895CF93BE
:100CC000DF93FC012281211109C090939809809340
:100CD000970910925202DF91CF910895EC0166239B
:100CE00021F0808191810E94FE03888199810E9478
:100CF0005F04CE01DF91CF910C947D04CF93DF93FD
:100D0000DFB7F894C0915002C11109C081E080930F
:100D1000500210920E0289E00E947F0218C080915A
:100D20006F038F3F99F4E0910F02EE2379F08091E9
:100D300010028F3F19F41092100204C0F0E0E15944
:100D4000FC4F108210920F02C0E001C0C5E0DFBF6F
:100D50008C2FDF91CF9108959C0180914902909151
:100D60004A02892BB1F59FB7F89485E0809347023A
:100D70001092460230934C0220934B0222E030E066
:100D800030934A0220934902109244021092450285
:100D9000645F609348029FBF8FB7F8949091660597
:100DA0009A3011F48FBF17C08FBF9FB7F89480910E
:100DB0007803811106C081E0809378031092790353
:100DC00001C080E09FBF882331F00E949B0480E037
:100DD000089585E0089510924A021092490281E038
:100DE00008958FEF8093A2098093A10984E68093F0
:100DF000A7098091E8039091E903892BF1F48CE92C
:100E000099E09093E9038093E8038CE18093A5092E
:100E100080910D02882391F010920D026CE18CE913
:100E200099E00E94AC06882349F091E090930D026E
:100E30001092E9031092E803089585E008958091E7
:100E40003B028C3118F4482F50E002C04CE150E0D6
:100E50009CE1E8EAF9E0DF011D929A95E9F79091AB
:100E60003D0220E030E02417350799F0E92FF0E04B
:100E7000EA52F84F6081882329F09F5F9A3F09F476
:100E800090E08150F901E456F64F64872F5F3F4FA1
:100E9000EACF90933D0280933B020E94F1068823A3
:100EA00019F082E10C947F020895CF93DF931F9293
:100EB000CDB7DEB790913A0291110BC090913B02F1
:100EC0009D3738F091E090933A0289830E941F0782
:100ED00089813FB7F89420913B022A3FB8F4909162
:100EE0003C02E92FF0E0EA52F84F808381E0890F5D
:100EF0008A3F19F080933C0202C010923C022F5F9F
:100F000020933B023FBF80E090E003C03FBF8FEFE4
:100F10009FEF0F90DF91CF910895CF93DF93DFB7CD
:100F2000F89480915102823021F5C0911102C111D3
:100F300020C0909113029F3FB1F0E92FF0E0E253FF
:100F4000FD4F8081809313028F3F11F48093120232
:100F50008FEF80839093110281E08093510280E0B3
:100F60000E947F0204C09093110210925102DFBFD1
:100F700002C0DFBFC1E08C2FDF91CF910895CF93E6
:100F8000DF93DFB7F89480915002823039F5C09139
:100F90000E02C11123C0909110029F3FB1F0E92FC2
:100FA000F0E0E159FC4F8081809310028F3F11F4F3
:100FB00080930F028FEF808390930E0281E08093E5
:100FC000500289E00E947F0204C090930E021092AA
:100FD00050028CB58F7B8CBDDFBF02C0DFBFC1E08C
:100FE0008C2FDF91CF910895CF92DF92EF92FF92F5
:100FF0000F931F93CF93CFB7F8942091B3009091A4
:10100000B20087B3291711F081FF02C0CFBF7CC0A7
:1010100080915C03811102C086EE3FC00E94A7024E
:10102000C0908E02D0908F02E0909002F0909102DA
:1010300000910509109106092091070930910809CE
:10104000AB01BC014C195D096E097F0940175107BE
:101050006207730728F010925C0386EE91E01EC0D1
:10106000D901C8018C0D9D1DAE1DBF1D4091980278
:101070005091990260919A0270919B02841B950B8A
:10108000A60BB70B873E9105A105B10528F6823066
:101090009105A105B10508F482E090E02FEF280F3B
:1010A0003091B60033FDFCCF3091B2002313822F74
:1010B000409198025091990260919A0270919B021E
:1010C0008A019B010F5F1F4F2F4F3F4F080F111DCC
:1010D000211D311D041715072607370710F4842F2B
:1010E00080952091B60023FDFCCF8093B300CFBF45
:1010F000992351F085E0CF911F910F91FF90EF90D0
:10110000DF90CF900C947F02CF911F910F91FF90B1
:10111000EF90DF90CF9008950F931F93CF93DF93BD
:101120008C01EB010E942B02CB01B8010E947725B4
:10113000AC014C0F5D1F60E070E082E0DF91CF9169
:101140001F910F910C94C802CF93DF931F92CDB7DC
:10115000DEB789830E94C301898180688EBD80E0EB
:101160000E94BC010E94B70189830E94AC01898161
:101170000F90DF91CF9108951F93CF93DF931F922C
:10118000CDB7DEB7182F69830E94C301912F906CF1
:101190009EBD89810E94BC010E94B7010F90DF9122
:1011A000CF911F910C94AC01FC01648525856111E0
:1011B0000AC030E0215031098AE0829FB001839F4C
:1011C000700D11240BC03AE0239FC001112470E080
:1011D0000E948B256A5071091486158622853385F5
:1011E00049E0429FC001439F900D11240596860F50
:1011F000971F6AE070E00E947725738762870895E1
:101200008CB58F7B8CBD229A2398219A209A8CB51D
:1012100080618CBD8CB58F778CBD8CB5877F8CBD84
:101220008CB58B7F8CBD8CB580648CBD8DB5816099
:101230008DBD8CB58C7F8CBD0895CF938FB7F894FE
:1012400090910E02911106C090915002923011F4CB
:101250008FBF0FC08FBFCFB7F8948091500281111C
:101260000AC082E08093500210920E020E94000990
:10127000CFBF81E004C0CFBF0E947E0680E0CF9147
:101280000895CF93DF93FC01228130E0322F222793
:101290004181242B25FF15C027743C7C213438481C
:1012A00081F4FC01C781D0E0DC2FCC278681C82BDC
:1012B0000E942F0321E0C817D90709F020E0822FF0
:1012C00001C080E0DF91CF9108950F931F93CF93DA
:1012D000DF93E0913802F0E0EE0FFF1FE857FA4F7E
:1012E000C081D181662329F06CE170E08CE190E04F
:1012F0002CC08C018091390283FF3CC0F80184A589
:1013000080FD38C0878190E0982F88272681822B26
:101310000E9404028F3F71F09EE0899FF00111242A
:10132000EE50FC4F85858F5F8587853018F0CF01A3
:101330000E94D4080E94A1028B8181508B83882354
:1013400051F067E070E087E090E0DF91CF911F916E
:101350000F910C948C080E94AC03809139028F7E0F
:101360008093390267E070E087E090E00E948C088B
:1013700060E02AC00E94AC03809139028F7E809386
:10138000390267E070E087E090E00E948C08F80185
:10139000878190E0982F88272681822B0E94040263
:1013A0008F3F89F09EE0899FF0011124EE50FC4FA1
:1013B00084858F5F848785858F5F8587853018F06A
:1013C000CF010E94D40861E0CE01DF91CF911F913F
:1013D0000F910C945F0610920D02E091E803F091DA
:1013E000E9033097D1F08091030980FD16C0809108
:1013F0000D02811116C02581868161856D3118F03D
:101400008BE00C947F0290E0922B86839583CF0132
:101410000E94AC06882329F0F3CF81E080930D026F
:10142000E6CF08954F925F926F927F928F929F9234
:10143000AF92BF92CF92DF92FF920F931F93CF9301
:10144000DF93AFE7B4E0C12CD12C49E04C9DF00113
:101450004D9DF00D1124EF01C158DB4FF884F1FED2
:10146000EFC08D909D90AD90BC90139714960D9108
:101470001D912D913C9117972B013C01481859085B
:101480006A087B08401651066206730608F4D8C045
:10149000F0FE06C0E957FB4F20812D7F20830AC054
:1014A000B901A801480D591D6A1D7B1D4883598348
:1014B0006A837B8322E0C21609F463C083E0C81606
:1014C00009F467C09091330221E0C21609F44EC0BE
:1014D000992309F4BEC080913202882309F4B9C06F
:1014E0008091D608811120C00E94A10287E10E944C
:1014F0007F024091000250910102609102027091BE
:1015000003028091200390912103A0912203B091C6
:101510002303481B590B6A0B7B0B81E08093D60891
:1015200080E00E94C80295C0809100029091010263
:10153000A0910202B0910302880F991FAA1FBB1F3E
:10154000813020ED920727E0A207B10520F080E06E
:1015500090EDA7E0B0E08093000290930102A09389
:101560000202B09303020E94F20273C0992309F4AD
:1015700070C080913202882309F46BC00E94A102DE
:1015800068C0809139028F7E809339020E94A40244
:1015900060C09FB7F89422B181E0822782B99FBFD3
:1015A00080915202811155C08BE692E0892B19F08F
:1015B000E3E7F2E002C0EBE6F2E08FEE81838EEB30
:1015C00080839091250280912602938382832091CB
:1015D000390221FF50C029E120935F0290937002ED
:1015E00080936F028091940291E0980F90939402FF
:1015F000809371028EEE8093720210926C02E091E1
:101600009709F09198093097B1F18FE592E09183B5
:10161000808312828EE18383CF010E94DA228111BE
:101620002AC08091390282FF03C084FF0E94A40275
:10163000109298091092970981E08093520209C094
:101640002FEFC21AD20A199624E0C216D10409F06B
:10165000FDCE86E0DF91CF911F910F91FF90DF903B
:10166000CF90BF90AF909F908F907F906F905F9042
:101670004F900C947F021298ECCF8091730390915D
:101680007403892BC1F581E090E09093E608809384
:10169000E50885EB92E090937403809373031092B6
:1016A00059031092580381E080935A038091C0003F
:1016B00080648093C0008091C10080648093C100E9
:1016C00080915803909159039C012F5F3F4F3093B5
:1016D000590320935803FC01EB54FD4F80819FB7C1
:1016E000F8948093C6008091C00080648093C0000D
:1016F0009FBF80E0089585E0089593E8980F9230A9
:1017000050F490913E02916090933E0290E28927BE
:1017100080936B058DE78093B5020C943D0B9FB7CA
:10172000F89480913E028E7F80933E028EE78093F4
:10173000B5029FBF0C943D0B2F923F924F925F9248
:101740006F927F92AF92BF92CF92DF92EF92FF9211
:101750000F931F93CF93DF9320915402222311F014
:1017600015E0DEC010919B091530D1F72091DC08FF
:101770002111F6CFEC010E941D09882389F38CA565
:1017800082FF03C06EA56F7001C060E08091A90365
:10179000681731F06093A903606885E00E94BC0877
:1017A0002A8130E0322F22278981282B27743C7C24
:1017B00021343848A1F486E00E94A4088F7190E09B
:1017C0004091650320911F0330E0240F311D43E059
:1017D000359527954A95E1F72817390744F169E0CF
:1017E00082E00E94BC080E9437032B013C016E017D
:1017F000EFEFCE1ADE0A08818CA52EEFB22EB00EC6
:1018000084FF09C09E012C193D098BEF800FA82E83
:10181000A20EBA1802C0AB2CB12C81E00E94A40821
:101820008F71893039F066E082E00E94BC080E9426
:10183000BF0776C08FB7F8942F9AE0908400F0909D
:1018400085008FBF0E94AA010E94C30180E68EBD61
:10185000802F0E94BC0186013A2CF80181918F01F2
:101860000E94BC013A943110F8CFAA942A2D30E09E
:101870008601020F131F2F5F3F4F2C0D3D1D1701D7
:10188000F2EA2F0E311C24183508C101AA2797FD52
:10189000A095BA2F12012301280E391E4A1E5B1E85
:1018A000BB2041F1F8018181C280D12CE12CF12CC7
:1018B0007601DD24CC24F82A8481C82A8381D82AA1
:1018C000D701C60182199309A409B50984839383BA
:1018D000A283B183A22E3901F30181913F010E94BD
:1018E000BC01862D8A198B11F7CFF801C482D382EF
:1018F000E282F1820E94B7010E94AC0166E082E0C0
:101900000E94BC088CA582608CA728A639A64AA68E
:101910005BA686E080939B0984E08093540210E0EC
:10192000812FDF91CF911F910F91FF90EF90DF906A
:10193000CF90BF90AF907F906F905F904F903F900F
:101940002F9008953F924F925F926F927F928F9265
:101950009F92AF92BF92CF92DF92EF92FF920F933E
:101960001F93CF93DF9300D0CDB7DEB714E030E8FC
:10197000A32E05E043E0D42E59E0852E62E0C62E6A
:1019800078E0B72E8EEC99E0E5E09E2E980E8091DF
:101990003205823009F07DC01092320580917503C6
:1019A000823009F459C0833009F461C0813009F0F4
:1019B00070C020918400309185006090E6037090A3
:1019C000E703621A730A90912703903841F410924A
:1019D000270390912603923009F05BC03AC097FF2D
:1019E00004C0161417040CF4A8C3E0902403F0906C
:1019F0002503809197028111A0C3C7010E949C0B0F
:101A0000282F81119BC3D7019C968C919C978E7F28
:101A10009C968C9381E080939702F092D509E09296
:101A2000D409D092270335C097FF9FC3161417041B
:101A30000CF09BC3A092270381E0809375038093F1
:101A40003205C30129830E94620329812093090979
:101A500081E08093260308C010929702109227031A
:101A600010920909109326030E949E0212C09091C1
:101A70009B09923019F480939B0909C0809154020C
:101A8000863029F41092540281E00E94A4080E943A
:101A90003D128091DC08882309F4B3C080919B0932
:101AA000813009F4AEC00E941D09882309F4A9C041
:101AB0008FB7F8946090690370906A038FBF10929B
:101AC000DC088FE00E94A408F82E809154028B7FDE
:101AD000833021F400939B09B0925402F2FE4AC075
:101AE00080915402863011F4109254028091540275
:101AF000811140C0B4E0FB1234C086E00E94A4080B
:101B00008F7190911F03292F26952695921B980F70
:101B100090931F03E0919202F091930294A59B7F12
:101B2000986094A786A70E94370393012750310934
:101B3000261B370B2901662457FC6094762CE09114
:101B40009202F091930224A5226024A7AB01BC016C
:101B5000440D551D661D771D40A751A762A773A7A9
:101B600007C0E0919202F091930284A5857F84A73B
:101B700000935402F3FE45C080915402843081F5F5
:101B800000939B091092540280919702833019F4BC
:101B90001092970236C0E091D409F091D509828164
:101BA00090E0982F88272181822B85FF0EC08774B3
:101BB0009C7C8134984849F4878190E0982F88274D
:101BC0002681822B019609F0D3C2109297021092BF
:101BD000270310920909109326030E949E0211C048
:101BE000853079F486E00E94A408909165038F7196
:101BF000292F26952695921B980F90936503809226
:101C0000540280915402882309F44DC2893009F0AE
:101C1000BCC10E94C30180E28EBD0DB407FEFDCFA2
:101C20008EB51EBC0DB407FEFDCF8EB59DEF980F8F
:101C3000973208F07AC01EBCE0919202F0919302B4
:101C40003F015FEF651A750A8083AEEF5A2E580E7A
:101C500086E0851510F0452C02C0F7E04F2E730189
:101C6000342C40E050E080E049835A830E94BC015C
:101C7000D7018D937D01682F49815A81CA010E9445
:101C8000C501AC013A943110EECF2FEF240D30E0B6
:101C90002F5F3F4F620E731EE0919202F09193020C
:101CA00081818770823029F4809197028230D9F542
:101CB0000BC09FB7F89481E02091D008233008F042
:101CC00080E09FBF882379F1852D84197301680E08
:101CD00080E049835A836E1469F00E94BC01F701C9
:101CE00081937F01682F49815A81CA010E94C501F1
:101CF000AC01EECF0E94BC01682F49815A81CA0114
:101D00000E94C5017C0180E00E94BC01682FC701D0
:101D10000E94C5017C010E94B701E0919202F091FE
:101D2000930285A705C00E94B701EE24E394F12C2D
:101D30000E94AC0100939B0910925402EF2809F015
:101D4000A9C14090920250909302D20111968C91B9
:101D50001197877090919702823029F5923009F09F
:101D60000FC1E091D409F091D50913969C9183811C
:101D7000981306C180916F008D7F80936F00109241
:101D80003205E091D409F091D50984A5816084A73A
:101D900010929702109227031092090910932603BC
:101DA0000E949E02EDC0911117C0C2010E9441091C
:101DB000882391F00093AC03C092AD031092AE0360
:101DC000F20183818093AF038CEA93E00E949C0B25
:101DD000811102C0D0929702E0908400F0908500BB
:101DE000C2010E944109882321F0F4EEEF1AFCEFB2
:101DF000FF0AF092E703E092E6038091840090915D
:101E000085009701281B390BC90118161906ACF477
:101E10002091270321110EC02091320521110DC000
:101E200021E020937503209332050E946203A09263
:101E3000270303C0206820932703D20119968C91B1
:101E4000199790E0982F882718962C91822B209133
:101E50009C02422F50E0FA01EE0FFF1FE951F74FAD
:101E600060817181F09033056817790711F4FA01E8
:101E700010C0A7EEB8E0EEECF9E020E030E070E052
:101E800060E04D915D914817590779F420939C02C9
:101E9000F901E253F64F80818F1509F43FC0F394A6
:101EA000F0923305F08260E822C041915F2D541B0F
:101EB000651710F4722F652F2F5F3F4F25303105C6
:101EC00001F770939C02272F30E0F901EE0FFF1FFE
:101ED000E951F74F91838083F394F0923305F90130
:101EE000E253F64FF082F901EE50F64F10828091E6
:101EF0003305982F9F779F3719F020919C020EC0D1
:101F00006F37D8F3EEECF9E0282F207890819F67A7
:101F10009813208331969E12F9CFEFCFD2011396FA
:101F20009C91E22FF0E0DF01AE50B64F8C91EF5262
:101F3000F74F80FF04C08081981303C021C08160E7
:101F40008C939083FFB6F8948091D0088330B8F4D6
:101F5000E0910209E80FE33008F0E350F0E0EE0F03
:101F6000FF1FE75AFD4F7080E180518240828F5FF2
:101F70008093D00883E00E947F02472C5E2CFFBE36
:101F8000509293024092920285C09FEF980F933037
:101F900008F06EC09EEF980F9230D8F520919B0903
:101FA000213099F49091320591110FC029830E943C
:101FB000AA01D09275032981209332058BE293E028
:101FC0000E946203C0929B093EC0833011F523300A
:101FD00001F50E941D098823E1F08FE00E94A4080A
:101FE0008091810080648093810080E286BB809133
:101FF0006F00806280936F006091CB02606688E022
:102000000E94BC0866E082E00E94BC0810939B0915
:102010001AC08091540281508230A8F480919B09AB
:10202000853089F40E941D09882369F063E082E00D
:102030000E94BC0880916F008F7D80936F0010928A
:10204000DC08D0929B0980915402813041F4909138
:102050009B099330F9F42F9A80939B0906C0823034
:10206000C9F480919B098330A9F4B092540212C044
:10207000873081F40E941D09882361F06091CB02B2
:10208000606688E00E94BC0880919B09853069F7F2
:1020900010939B0980915402883029F410925402C5
:1020A00081E00E947F028091540281111DC08091C5
:1020B0009B098530C9F48091DC08811115C080919D
:1020C0009702811111C08091270381110DC0809169
:1020D0003205811109C080912603823029F481E004
:1020E000809326030E949E0280915402811103C0B6
:1020F00087E00E947F028FB7F89490916D05913030
:10210000B9F410926D058FBF0F900F90DF91CF91B2
:102110001F910F91FF90EF90DF90CF90BF90AF9005
:102120009F908F907F906F905F904F903F90089519
:1021300091E090936D058FBF2ACC25E09091270305
:10214000892F8F77813009F06FCC907892609093CF
:10215000270380E198E00E948B0321E02093750320
:10216000209332050E94620394CC109227036ECC18
:1021700080913205811129CDC092750381E0809351
:10218000320589E993E00E946203C092970239CD3B
:102190009FB7F89480916D05815080936D058038CC
:1021A00011F09FBF089581E080936D059FBF0C944F
:1021B000A20C0F931F93CF93DF931F92CDB7DEB77F
:1021C0008C018FE3F8018287909153029F5F909377
:1021D000530293830E94AE018091260381110DC0AA
:1021E000109368050093670581E0809326031092A1
:1021F00034050E949E0280E001C085E089830E9430
:10220000C81089810F90DF91CF911F910F91089590
:10221000FF920F931F93CF93DF93EA012D3108F0C4
:1022200068C0EA81F0E0FE2FEE279981E92BAF012B
:1022300047745C7C4134584839F0E073FF27E1640F
:10224000F868E98398E89A838B01F82E235F288346
:102250000E942F03888799879FB7F8948091140272
:102260009FBF8C831D82FB860E831F838FB7F894DC
:102270009091510291110FC092E0909351021092EF
:1022800011028FBFCE010E94D910C82F882391F16F
:102290000E948D072FC08FBFD093CD02C093CC0278
:1022A000DFB7F894C0915102C11109C081E0809359
:1022B00051021092110280E00E947F0218C08091AA
:1022C000CE028F3F99F4E0911202EE2379F08091D3
:1022D00013028F3F19F41092130204C0F0E0E2538E
:1022E000FD4F108210921202C0E001C0C5E0DFBFB6
:1022F00001C0C6E08C2FDF91CF911F910F91FF900D
:1023000008950F931F93CF93DF93082FEB01142FA2
:10231000E82FF0E0EE0FFF1FEA50F74F1182108216
:10232000909105029F5F917082E0492F50E0FA0181
:10233000EE0FFF1FEA50F74F20813181232B59F018
:1023400020916B0330E0092E02C0359527950A9441
:10235000E2F720FF08C04F5F5F4F942F91708130EC
:10236000E9F181E0E2CF90930502E0910502E230CD
:10237000F0F4F0E0EE0FFF1FEA50F74FA081B181BB
:102380002C912D5017966C91179770E0F62FEE2731
:1023900016968C911697BF01682BAD011B968C91F8
:1023A0000E940811882319F085E10E947F02002312
:1023B00019F0013049F016C0612FCE01DF91CF91A5
:1023C0001F910F910C946509C952D34059F4809123
:1023D0003102882339F01092310204C082E08093E8
:1023E0000502C3CFDF91CF911F910F910895DC01BA
:1023F000462F80910502823068F4E82FF0E0EE0F5E
:10240000FF1FEA50F74F608171816A177B0711F453
:102410000C9481110895CF93DF93C82FD0E0CC0F97
:10242000DD1FCA50D74F28813981232B01F57983CD
:1024300068839DE0940FFB01908390910502923098
:10244000C0F0242F982F8385678170E0762F662750
:102450003681632B90930502AF010E9408118823F7
:1024600041F092E0909305021982188203C085E042
:1024700001C080E0DF91CF9108959FB7F8948091DB
:102480006D05882329F0806880936D059FBF0895AE
:1024900081E080936D059FBF0C94A20C2F923F9218
:1024A0004F925F926F927F928F929F92AF92BF9264
:1024B000CF92DF92EF92FF920F931F93CF93DF9310
:1024C00000D000D01F92CDB7DEB790E088319105E3
:1024D00010F00C944D1DFC01EA59FF4F0C94EC25B3
:1024E0008FB7F89492E0909351028FBF80911102C0
:1024F00081110C944D1D8091CC029091CD020E94CF
:10250000D910882311F40C944D1D8A830E948D07E5
:102510006A818091CC029091CD02F7C08091260310
:1025200010922603853009F08DC081E0809333023C
:102530008091320281110E942B02809139028460C5
:10254000809339028091360281110E94A402809109
:1025500039028260809339020E942F03909387058D
:102560008093860580913202811130C081E0809392
:10257000320280E890E0A0E0B0E080930002909307
:102580000102A0930202B09303020E94F2020E9491
:10259000A702609388047093890480938A049093BF
:1025A0008B0480E090E2A0E0B0E080938C049093F4
:1025B0008D04A0938E04B0938F04809190048E7F3D
:1025C00082608093900486E00E947F0280912502C1
:1025D000909126020197C1F48091DD089091DE0868
:1025E00021E0209358022091860530918705309391
:1025F000DE082093DD081092E0081092DF080196B3
:1026000011F00C944D1D85C60E94A70260939A0498
:1026100070939B0480939C0490939D0480ED97E0BD
:10262000A0E0B0E080939E0490939F04A093A00448
:10263000B093A1048091A2048E7F82608093A20453
:1026400086E073C4863031F41092330280913902EF
:102650008B7FB1C6873011F40C944D1D80932603F7
:102660000C944D1D0E94AE0100912603013091F59E
:10267000809134058F5F80933405863058F58091C2
:1026800067059091680520912703211115C01091CD
:102690003205111111C090932503809324030093F8
:1026A00027038BED91E10E948B0300937503009348
:1026B00032050E94620301C015E01093090911114F
:1026C00004C083E08093260308C082E08093260341
:1026D00010E003C01092260311E00E94C8101123DD
:1026E00011F40C944D1D609109090091670510913A
:1026F0006805D8011A968C918F3311F00C944D1DFA
:102700006A830E948D076A81C8010F900F900F9015
:102710000F900F90DF91CF911F910F91FF90EF904D
:10272000DF90CF90BF90AF909F908F907F906F90F1
:102730005F904F903F902F900C94F711B0E84B2E84
:10274000512C612C712C1EE0312E222423948FB742
:10275000F8949091D008992309F439C3E0910209C3
:10276000F0E0EE0FFF1FE75AFD4F208131813D83DE
:102770002C838FBFAC81BD812C918EEF820F89306D
:1027800008F409C21A968C911A978F3309F0E7C1A1
:1027900085EF820F823008F4FEC11B963C911B9797
:1027A00017960C91179710E0102F002716968C9112
:1027B000082B0F3FBFEF1B0759F4EC81FD8194817B
:1027C0004FB7F894809114024FBF981761F0B4C1CD
:1027D0002A833B830E942F032A813B810817190714
:1027E00009F0AAC1EACF303721F0313709F453C1DB
:1027F000D2C1AC81BD8117968C91179790E0982F2C
:10280000882716962C91822B019679F0EC81FD8118
:1028100080818D5094859F70292F220F920F891BE4
:102820009EEF980F8D31F0F530C0AC81BD811996C7
:10283000EC901997F12CFE2CEE2418968C91189799
:10284000E82A1C968C918F70B82EC7010E94040252
:102850008F3F21F0EC81FD8165850FC0E7EFF3E04C
:1028600010E0808180FD0CC0B701812F0E942E21D5
:10287000AC81BD811D966C91812F0E94AC21B9C79E
:102880001F5F3E961A3069F79FC7CC80DD80ECE071
:10289000CE0ED11CC114D10409F1953009F07BC1D1
:1028A0000C943E1D953009F076C1AC81BD8119961E
:1028B0000C91199710E0102F002718968C911897FB
:1028C000082B6D01BCE0CB0ED11CE12CF12CC11406
:1028D000D104A1F0EC81FD813E9612C0953009F043
:1028E0005AC1AC81BD8119960C91199710E0102F37
:1028F000002718968C91082BE12CF12CE0E0F0E0F9
:1029000020812983D70111968C91119790E0982FFF
:10291000882712962C91822B019609F4B2C0F701F8
:10292000838190E0982F88272481822B892B91F531
:10293000C8010E9404028F3F01F5E7EFF3E080E059
:10294000908190FD02C0B80116C08F5F3E968A301C
:10295000B9F780E00E944421B82E6FEF861769F026
:102960003B9CF0011124EE50FC4F808191810E942C
:102970006521B8018B2D0E942E21C8010E940402FE
:102980008F3F41F0389EF0011124EE50FC4F8581BD
:1029900088608583D70113968C901397912C982C7F
:1029A000882414968C911497882A11968C911197EB
:1029B00090E0982F882712962C917C01E22AC8017A
:1029C0000E9418025C01C8010E94BF048A3081F194
:1029D0009091960289131FC0B2E3AB16B10440F583
:1029E000E8E08E9FD0011124A153BD4F11961C9396
:1029F0000E931396FC92EE92129715969C928E92DD
:102A0000149716962C92169717961C92E1E0E80FF1
:102A1000E09396020DC028E0829FF0011124E1535B
:102A2000FD4F11830083F382E282958284822682A5
:102A300080910402811125C0FF24F394398136FF6F
:102A4000F12CC8010E94BF0490919602891738F4B6
:102A500058E0859FF0011124E153FD4FF7828091EA
:102A6000E208882329F0F11003C00E94A10209C0E6
:102A70008091DD089091DE088017910711F4F11024
:102A8000F4CFCD2821F0EC81FD813E9602C0E0E03C
:102A9000F0E0808157C0AC81BD8153961C91539763
:102AA0001D960C911D970F5F1D960C931D972D5031
:102AB0002D3108F070C0CD010E94C70390915702DC
:102AC000891708F468C040913602442309F45BC0BA
:102AD00050913802EC81FD81808990E0982F882701
:102AE0002189822B4150E42FE50FED3008F0ED50A5
:102AF000F0E0EE0FFF1FE857FA4F0190F081E02D54
:102B00000190F081E02D208930E0322F2227618969
:102B1000262B2817390769F43289AC81BD8152967A
:102B20002C91321306C02585201303C02389211759
:102B300091F14111D7CF27C0313769F5AC81BD8103
:102B40001C968C9187FF27C0409200025092010290
:102B500060920202709203020E94F2021CC0EC8199
:102B6000FD81078110E0102F00278681082B0E942D
:102B70002F030817190719F00F3F1F4F61F48FB784
:102B8000F8948FBF08C080915802811171C690914E
:102B9000AB03911189C68C819D813FB7F894209138
:102BA0000209E22FF0E0EE0FFF1FE75AFD4F80838E
:102BB000918381E0820F833018F48093020902C070
:102BC000109202098091D00881508093D0083FBFB5
:102BD000BECD0E942B022FB7F89470936A056093C4
:102BE00069052FBF5AC78091CA02811141C0409127
:102BF000F2085091F3086091F4087091F5082FB72E
:102C0000F894C0900509D0900609E0900709F0906B
:102C1000080980918E0290918F02A0919002B0914C
:102C200091028C0D9D1DAE1DBF1D2FBF4093F2085C
:102C30005093F3086093F4087093F5081092CA0259
:102C40002FB7F89431E030935C0380938E02909319
:102C50008F02A0939002B093910240930509509384
:102C6000060960930709709308092FBF0E94F407B3
:102C70000E94A70248C00E94A7022FB7F8941092A2
:102C80005C032FBFAFE7B4E010E044244A94542C17
:102C9000642C2FE7722E20E030E009E0029FF00163
:102CA000039FF00D1124E158FB4F408541FF1DC0EB
:102CB000CD90DD90ED90FC9013974B015C018C184A
:102CC0009D08AE08BF081496CD90DD90ED90FC9065
:102CD0001797C818D908EA08FB08C414D504E604F5
:102CE000F7041CF42601370111E02F5F3F4F1996BE
:102CF0002430310599F6112309F4CFC614141504B4
:102D000016041704CCF00F900F900F900F900F90B7
:102D1000DF91CF911F910F91FF90EF90DF90CF90B7
:102D2000BF90AF909F908F907F906F905F904F90EB
:102D30003F902F900C94120A4092F2085092F308A0
:102D40006092F4087092F50821E02093CA023FB720
:102D5000F89420935C0360938E0270938F028093AB
:102D60009002909391024092050950920609609258
:102D70000709709208093FBF0F900F900F900F90B6
:102D80000F90DF91CF911F910F91FF90EF90DF9007
:102D9000CF90BF90AF909F908F907F906F905F90FB
:102DA0004F903F902F900C94F4078FB7F8941092A7
:102DB00002051092010510929A0910929909109239
:102DC0005602109255021092E5031092E4038FBF51
:102DD00064C61FB7F89482E0809350020E940009F5
:102DE0001FBF80910E02811158C680919B098111ED
:102DF00050C00EEF11E0C801019701960197E1F76D
:102E000016980E94AA0186E090E00197019601972A
:102E1000E1F7169A60E083E00E94BC0868E082E077
:102E20000E94BC08C801019701960197E1F76DE483
:102E30008EE00E94BC0867EC89E00E94BC0860E854
:102E400085E00E94BC081092A9038AE18093CB021E
:102E50006AE788E00E94BC082F9A81E080939B0972
:102E60000F900F900F900F900F90DF91CF911F91C7
:102E70000F91FF90EF90DF90CF90BF90AF909F9019
:102E80008F907F906F905F904F903F902F900C9419
:102E9000BF070F900F900F900F900F90DF91CF9181
:102EA0001F910F91FF90EF90DF90CF90BF90AF9068
:102EB0009F908F907F906F905F904F903F902F905A
:102EC0000C943D1280910309882309F4E6C508EEAD
:102ED00013E0F12CEE24E394809103099E2D9823B6
:102EE00069F0D8011D921C929E2D909589238093A4
:102EF0000309F11003C082E10E947F02EE0CF394FB
:102F00000E5F1F4FB8E0FB12E7CFC7C510910D024F
:102F1000E12FF0E0EE0FFF1FE851FC4F118210820D
:102F20000E94EB091111B9C582E10F900F900F902B
:102F30000F900F90DF91CF911F910F91FF90EF9025
:102F4000DF90CF90BF90AF909F908F907F906F90C9
:102F50005F904F903F902F900C947F022FB7F89482
:102F60001092CD098091660598EF980F923050F439
:102F700010926605E0917E04F0E0EE0FFF1FEA5824
:102F8000FC4F10822FBF923018F53FB7F894909104
:102F900001099F5F9093010990917003933489F424
:102FA0008091DD039091DC03981741F08F5F8630AC
:102FB00018F48093DD0302C01092DD0380E020E06E
:102FC00005C021E0883009F420E081E03FBF04C063
:102FD000811107C520E080E03FB7F89490914F023F
:102FE0003FBF992339F09FB7F8943AE030936605D4
:102FF0009FBF3FC04FB7F89430917603909178030C
:103000004FBF6FB7F8945091DC034091DD036FBF61
:10301000541709F131111FC03FB7F89492E0909313
:1030200076035FB7F8944091DC039091DD035FBFB6
:10303000491739F0E091DD03F0E0E452FC4F928152
:1030400001C090E09093770393E490937003109203
:103050007E043FBF0CC09150923058F49FB7F89453
:1030600035E43093700331E030937E049FBF01E07C
:1030700001C000E0882341F08FB7F8942093460206
:103080008FBF80E10E947F021FB7F8948091660590
:103090008A3021F40E94AD041FBFFFC41FBF00236C
:1030A00009F4FBC48FB7F8941092EF091092EE095F
:1030B00010926C0391E0909366058FBF0E948F0B76
:1030C000882309F4EAC48FB7F89499E090936605D1
:1030D0008FBF0F900F900F900F900F90DF91CF91B7
:1030E0001F910F91FF90EF90DF90CF90BF90AF9026
:1030F0009F908F907F906F905F904F903F902F9018
:103100000C949B048091C1008F7B8093C1008091BF
:10311000C1008F778093C1001092350510925A0339
:103120008091C10088608093C1008091C10080615E
:103130008093C1008091C10080688093C1008FB7E7
:10314000F894109266051092280341CE8FE0EDCEE0
:103150008091C100877F8093C1008091C1008F7EE4
:103160008093C1009AC410924A02109249028FB70C
:10317000F894109146028FBF80914502811113E0AF
:1031800080914B0290914C0220914402211185C400
:1031900020910D02211181C42091E8033091E903AF
:1031A0002817390709F079C41092E9031092E8034F
:1031B0000E94EB091111B8CE80913B028823C9F01F
:1031C0000F900F900F900F900F90DF91CF911F9164
:1031D0000F91FF90EF90DF90CF90BF90AF909F90B6
:1031E0008F907F906F905F904F903F902F900C94B6
:1031F0001F0710923A0251C49FB7F89420914002E1
:1032000030914102809195029FBF9FB7F894E82FBB
:10321000F0E0EE0FFF1FE85FFD4F3183208388232E
:1032200021F080914E028B7F03C080914E028D7FF2
:1032300080934E02109243029FBF2FC40E94F1065A
:10324000882309F42AC470CED0903902D4FC25C456
:1032500080913602882309F420C49090580200918E
:10326000DD081091DE08911004C00F3FEFEF1E073C
:1032700089F00F3FFFEF1F0769F021E0921641F13F
:10328000A090DF08B090E008C8010E941802A80EC4
:10329000B91E20C040E157E260E070E082E00F908C
:1032A0000F900F900F900F90DF91CF911F910F9182
:1032B000FF90EF90DF90CF90BF90AF909F908F9056
:1032C0007F906F905F904F903F902F900C94C8022A
:1032D000A12CB12CE0913802F0E0EE0FFF1FE8576F
:1032E000FA4F60807180F301E080F180D701CC90CB
:1032F000C7010E94C70390915702891718F50E94D1
:10330000AC03D3018D919C910E945F04C3010E9484
:103310007D040F900F900F900F900F90DF91CF9141
:103320001F910F91FF90EF90DF90CF90BF90AF90E3
:103330009F908F907F906F905F904F903F902F90D5
:103340000C94A40291104FC3D7011F96AC921F9703
:103350001E96BC92D301ED91FC91119784858F73D9
:103360008487ED91FC91119721812062828130E068
:10337000382B218332838D2D886080933902D0FED3
:1033800008C0ED91FC919485906494878E7F809322
:103390003902D301ED91FC910683178381E783877E
:1033A00043EF4C0DBF0180E00E940B1281115EC300
:1033B000809139028061809339026FC380916B03E1
:1033C000882309F46AC306EF18E040E0FF24F39471
:1033D00090916B038F2D8923F1F0F80120813181C9
:1033E000118210828F2D8095982390936B03442334
:1033F00019F0413041F00FC063E0C9014A830E94D7
:1034000065094A8108C02952334029F4809131026C
:10341000811110923102FF0C4F5F0E5F1F4F483039
:10342000B9F63BC380910502E82FF0E0EE0FFF1FD5
:10343000EA50F74F6081718141E00F900F900F903B
:103440000F900F90DF91CF911F910F91FF90EF9010
:10345000DF90CF90BF90AF909F908F907F906F90B4
:103460005F904F903F902F900C9481118091580263
:10347000811113C3209096024090860550908705D5
:103480008090DD089090DE087FECE72E72E0F72E4A
:10349000E6EDAE2EE2E0BE2ECC24CA94DC2C2FEF5B
:1034A0003FEF3D832C8300E010E0312C3214E9F132
:1034B000D70112968D919C9113978F3FBFEF9B0779
:1034C00061F18415950549F1F70160807180C301B0
:1034D0000E941802D70114964D915C9115979C019A
:1034E000240F351F6814790451F45093E008409379
:1034F000DF08F50180818093E20869010EC0D501E3
:103500004C9141110AC0C29740F46C817D8126170D
:10351000370718F43D832C838701339478E0E70E56
:10352000F11C88E0A80EB11CC1CF2C813D812F3F3A
:103530005FEF350709F480C06FEFC616D60699F025
:103540008091E208882341F08091DF089091E008A3
:103550000A962817390738F08C819D810F968C15B3
:103560009D0508F069C08091FD089091FE08A0912A
:10357000FF08B09100090196A11DB11D8093FD08BF
:103580009093FE08A093FF08B0930009C4010E9425
:1035900004028F3F49F07EE0879FF0011124EE5036
:1035A000FC4F8581877F8583D8018D919C910E94F6
:1035B00004028F3F49F0BEE08B9FF0011124EE50D2
:1035C000FC4F858188608583F801808191810E940C
:1035D00004028F3F41F02EE0829FF0011124EE5053
:1035E000FC4F15861486D8018D919C91119790936C
:1035F000DE088093DD0814968D919C911597909329
:10360000E0088093DF0817968C918093E208C6014A
:103610002C813D81821B930B459770F080E890E0F0
:10362000A0E0B0E08093000290930102A093020218
:10363000B09303020E94F2028091300281110AC00D
:10364000CD20C09439F46C817D816F3F7F4F11F0A4
:103650000E94A4021092300220C280913102811196
:103660001CC2E0916D03F0916E0310829091DD0811
:103670008091DE08E0916D03F0916E039283818367
:1036800080915802E0906D03F0906E03882359F00A
:103690009091DF088091E008D70114969C931497CD
:1036A00013968C9321C08091DD089091DE088F3FA6
:1036B000BFEF9B0759F49091DF088091E008F70174
:1036C000948383838081806880830EC00091DF08AB
:1036D0001091E0080E941802800F911FD7011496E4
:1036E0008C93149713969C9385E393E0892B19F0A0
:1036F00087E393E002C085E393E020E030E0F12C23
:1037000040E00AE010E06EE0E62E6C01B5E0CB0E82
:10371000D11C80913402F901E80FF11DCF0101960F
:10372000B8010E948B25BC01E89EF001E99EF00DD6
:103730001124EE50FC4F95819370933089F4F62E4E
:1037400090818181D60153E0459FA00DB11D1124C8
:1037500011969C9311978C93808512968C934F5F52
:103760002930310529F5F09234028091350291E03B
:10377000980F9093350280933603842F8F70809337
:1037800035038FEF80932F038093300380E780937E
:103790003403842F880F480F495F69E273E081E0AA
:1037A0000E940B1281110AC081E08093310275C121
:1037B0002F5F3F4F473008F4ACCFD5CF843009F0AE
:1037C0006CC11092330269C187E30E944421182F13
:1037D0008F3F11F40C940614319EF0011124EE5029
:1037E000FC4F808191810E946521B701812F0E9449
:1037F0002E21BB2011F40C940614EC81FD81008174
:103800000D500D3118F4CF010C9602C080E090E00D
:1038100010E0F3E0BF9E001911091124080F191FD1
:103820000E942F036C010E5F1F4FA12CF8013297ED
:10383000808190E0982F882731962081822B8C15EB
:103840009D0579F4D8019C90C7010E9404028F3F26
:1038500041F0389EF0011124EE50FC4F9186B6E005
:10386000B783A3940D5F1F4FAB10E0CF0C940614E9
:103870008C819D810E94FE03EC81FD8180818D50B1
:103880008D3140F4E43F2FEFF20721F0BF016C5E71
:103890007F4F02C060E070E01E3E09F07CC98C8161
:1038A0009D810E94AF2279C92091AA03222309F4A5
:1038B00072C980910409E82FF0E0EE0FFF1FEA5271
:1038C000F64FE080F1801182108221502093AA03EC
:1038D0008F5F809304098C3011F410920409E11475
:1038E000F10409F458C980916603E82FF0E0EE0F67
:1038F000FF1FE259FA4F008111811182108291500D
:103900009093AB038F5F809366038C3011F4109219
:1039100066030115110509F43EC9D801EFE21D92B5
:10392000EA95E9F7EC81FD81B896DF0127E01D9269
:103930002A95E9F72C813D81D70111963C932E936E
:103940003FEF12963C9312975EE113965C93C7018A
:103950000E94DA2281113CC08091DD089091DE083E
:103960008F3F6FEF960769F120915802213049F09F
:10397000E090DF08F090E0080E9418028E0D9F1D75
:1039800002C080E090E0AC81BD811E962C911E9714
:1039900030E0322F22271F964C91242B8217930759
:1039A00080F04092000250920102609202027092F6
:1039B00003020E94F2026CE170E08CE190E00E9450
:1039C0008C088091990481FD0AC00E94A40207C05E
:1039D000C8010E945F04C7010E947D04DCC8C801C1
:1039E000DCC800E051CBF7013389A0917103B0919D
:1039F00072038FE201900D928A95E1F78091710335
:103A000090917203DC012C912D502D3140F4843FB4
:103A1000BFEF9B0721F0BC016C5E7F4F02C060E0EE
:103A200070E03E3E11F40E94AF22909372038093A7
:103A3000710360E0F301808191810F900F900F90EE
:103A40000F900F90DF91CF911F910F91FF90EF900A
:103A5000DF90CF90BF90AF909F908F907F906F90AE
:103A60005F904F903F902F900C9465098230A9F49D
:103A7000D301ED91FC9189E280834BCCEC80FD80F9
:103A8000BEE0EB0EF11CEC81FD81018510E0102FF2
:103A900000278085082B0C946A140F900F900F90CC
:103AA0000F900F90DF91CF911F910F91FF90EF90AA
:103AB000DF90CF90BF90AF909F908F907F906F904E
:103AC0005F904F903F902F9008958FB7F89408958E
:103AD0008FBF08951F920F920FB60F9211240BB64D
:103AE0000F920F931F932F933F934F935F936F9377
:103AF0007F938F939F93AF93BF93EF93FF930E9416
:103B0000FB018091B30090E00196409198025091A2
:103B1000990260919A0270919B028A019B01080FA1
:103B2000191F211D311D00939802109399022093B3
:103B30009A0230939B0278940E94F407FF91EF91D0
:103B4000BF91AF919F918F917F916F915F914F91B5
:103B50003F912F911F910F910F900BBE0F900FBEB1
:103B60000F901F9018951F920F920FB60F9211246D
:103B70000BB60F922F933F934F935F936F937F9367
:103B80008F939F93AF93BF93EF93FF930E94FB019B
:103B9000FF91EF91BF91AF919F918F917F916F9125
:103BA0005F914F913F912F910F900BBE0F900FBEE1
:103BB0000F901F9018951F920F920FB60F9211241D
:103BC0000BB60F922F933F934F935F936F937F9317
:103BD0008F939F93AF93BF93EF93FF932EB5E09195
:103BE0000105F0910205309739F08091E40390913E
:103BF000E503E80FF91F20838091E4039091E5032A
:103C000001969093E5038093E4038CB58F778CBD88
:103C10008091E4039091E503609155027091560202
:103C20008617970708F03FC02091990930919A09AB
:103C3000E0910105F0910205AC01465F5F4F64170A
:103C4000750708F4AB014150510984179507C8F472
:103C50002115310549F0D901A80FB91F6C916EBD2E
:103C60000DB407FEFDCF04C01EBC0DB407FEFDCF92
:103C70006EB5309721F0DF01A80FB91F6C93019644
:103C8000E4CF4CB540684CBD2115310531F0F90148
:103C9000E80FF91F20812EBD01C01EBC9093E503E3
:103CA0008093E40311C01092020510920105109256
:103CB0009A09109299091092560210925502109288
:103CC000E5031092E4038EB5FF91EF91BF91AF91A0
:103CD0009F918F917F916F915F914F913F912F9124
:103CE0000F900BBE0F900FBE0F901F9018957894F9
:103CF0001F920F920FB60F9211240BB60F922F93B3
:103D00003F934F935F936F937F938F939F93AF9363
:103D1000BF93EF93FF9380916F008D7F80936F002F
:103D200078948FB7F89490913205913019F492E01D
:103D3000909332058FBF0E943D12FF91EF91BF918A
:103D4000AF919F918F917F916F915F914F913F9133
:103D50002F910F900BBE0F900FBE0F901F901895D4
:103D600078941F920F920FB60F9211240F900FBEEE
:103D70000F901F90189578941F920F920FB60F9284
:103D800011240F900FBE0F901F90189578941F92DA
:103D90000F920FB60F9211240BB60F922F933F93F1
:103DA0004F935F936F937F938F939F93AF93BF9343
:103DB000EF93FF93E6E8F0E08081918120813181EB
:103DC0008FB7F89430936A032093690391E090933E
:103DD000DC088FBF0E943D12FF91EF91BF91AF9120
:103DE0009F918F917F916F915F914F913F912F9113
:103DF0000F900BBE0F900FBE0F901F9018957894E8
:103E00001F920F920FB60F9211242F938F939F93AF
:103E1000AF93BF932FB7F8948091EA039091EB038F
:103E2000A091EC03B091ED030196A11DB11D80930B
:103E3000EA039093EB03A093EC03B093ED032FBF41
:103E4000BF91AF919F918F912F910F900FBE0F90C7
:103E50001F9018951F920F920FB60F9211240BB658
:103E60000F922F933F934F935F936F937F938F9313
:103E70009F93AF93BF93EF93FF938091C00087FF11
:103E80004AC06091C6002091F0033091F1032115E2
:103E9000310551F18091CB099091CC09AC014F5F74
:103EA0005F4F5093CC094093CB09F901E80FF91FFC
:103EB00060832091CB093091CC098091F0099091D9
:103EC000F1092817390738F11092F1031092F00325
:103ED000809135058330F9F08091C1008F77809310
:103EE000C1001092350517C06E3719F460E081E00B
:103EF00010C080913E026D3721F4826080933E02B3
:103F00000AC081FF05C08D7F80933E0280E2682752
:103F100080E00E942605FF91EF91BF91AF919F91A4
:103F20008F917F916F915F914F913F912F910F9062
:103F30000BBE0F900FBE0F901F90189578941F9294
:103F40000F920FB60F9211240BB60F92EF92FF92C1
:103F50000F931F932F933F934F935F936F937F9391
:103F60008F939F93AF93BF93CF93DF93EF93FF9381
:103F700080915803909159032091E5083091E6080B
:103F800082179307D0F42091730330917403AC012E
:103F90004F5F5F4F5093590340935803F901E80F67
:103FA000F91F80819FB7F8948093C6008091C0006C
:103FB00080648093C0009FBFB2C0109274031092BF
:103FC000730310925A038091C1008F7B8093C100CC
:103FD0000FB7F89480913E02982F9170F92E80FFD0
:103FE0000AC08E7F80933E0280916B058093B5025C
:103FF0000E943D0B93C0E09166058E2F90E0FC017E
:104000003197E830F10508F084C0E258FF4F0C9476
:10401000EC25809170030E947D0B182F83E0809324
:104020006605609170030AC0809101090E947D0BB2
:10403000182F83E080936605609101098091EE0955
:104040009091EF090E94DB049093EF098093EE09B1
:104050005EC0E0917E04F0E0EE0FFF1FEA58FC4FD7
:1040600081810E947D0B182FE0907E04CE2DD0E040
:10407000CC0FDD1FFE01EA58FC4F61818091EE09F3
:104080009091EF090E94DB049093EF098093EE0971
:1040900090916C039F5F90936C0381E0E8121EC0C7
:1040A00080914702E0914B02F0914C02E80FF11D24
:1040B00020818F5F8093470230914802381720F4A7
:1040C00082E08093780301C0F22ECA58DC4F8881C9
:1040D000823021F09F3F11F0F98219C084E012C0B4
:1040E0008091EE090E947D0B182F85E00BC0809116
:1040F000EF090E947D0B182F86E004C00E948F0BF1
:10410000182F87E08093660502C088E003C0112362
:1041100029F089E0809366050E949B040FBFFF9100
:10412000EF91DF91CF91BF91AF919F918F917F914F
:104130006F915F914F913F912F911F910F91FF9040
:10414000EF900F900BBE0F900FBE0F901F90189521
:104150001F920F920FB60F9211248F938091C80077
:1041600087FD8091CE008F910F900FBE0F901F9012
:10417000189578941F920F920FB60F9211240F90FA
:104180000FBE0F901F90189578941F920F920FB644
:104190000F9211240F900FBE0F901F9018957894D6
:1041A0001F920F920FB60F9211240F900FBE0F9017
:1041B0001F90189578941F920F920FB60F921124AA
:1041C0000F900FBE0F901F90189578941F920F922A
:1041D0000FB60F9211248F939F9380919600909128
:1041E00097009F918F910F900FBE0F901F90189581
:1041F00078941F920F920FB60F9211242F938F93E2
:104200009F932FB7F894809167039091680301966C
:1042100090936803809367032FBF9F918F912F9195
:104220000F900FBE0F901F9018958FB7F894909134
:104230003A02913011F48FBF0EC090913B02911160
:1042400004C08FBF81E090E0089591E090933A021E
:104250008FBF0E941F0780E090E008952EE0829FAC
:10426000C0011124FC01EE50FC4F71836083128267
:104270001382148285E0858386E086838783108697
:104280001186138612860895E7EFF3E040E050E0D0
:104290009FEF20E03081632F6370633049F433FD7A
:1042A00007C0658176816417750710F0AB01922F06
:1042B0002F5F3E962A3071F7282F30E042175307C0
:1042C00010F0892F08958FEF0895CF93DF93EC01BD
:1042D0000E94BF04282F9091960289131CC08091E0
:1042E000DD089091DE088C179D0799F58FEF9FEF01
:1042F0009093DE088093DD081092E0081092DF08AA
:104300001092E1081092E20881E080933002DF9180
:10431000CF910C94A10291509093960288E02917B6
:10432000F0F6E22FF0E0DF0133E0AA0FBB1F3A9571
:10433000E1F7A153BD4F43E0EE0FFF1F4A95E1F7B0
:10434000E952FD4F382F01900D923A95E1F72F5F1A
:10435000E6CFDF91CF9108952F923F924F925F92D7
:104360006F927F928F929F92AF92BF92CF92DF9285
:10437000EF92FF920F931F93CF93DF93282F30E09C
:104380005EE0859FF0011124EE50FC4F858182FF95
:1043900003C062838B7F85838EE0829FF001839FC1
:1043A000F00D1124EE50FC4F8281962F981B892F1F
:1043B000628393819F5F938396E09683882369F05D
:1043C00094818B3020F49150890F848306C014822D
:1043D00081E083831782118610868EE0829FF00130
:1043E000839FF00D1124EE50FC4F8381833008F43D
:1043F000A3C040805180C7EFD3E08BEFE82E83E06D
:10440000F82EEAEFF3E009EF13E028EF33E049E09C
:104410009AE0C92ED12C662463945EEF752E6AE073
:10442000262EDF0118978D919C918415950509F032
:1044300075C0888180FF72C0D9019C91992311F0C9
:1044400091509C93D8019C91992311F091509C9389
:10445000D9019C9191110BC0D8019C91911107C079
:10446000B1E08B278883D7011C9210822AC082601A
:1044700088834F01B5E08B1A9108D4018C915F01BC
:10448000B4E0AB1AB108D5016C91680F633008F441
:1044900063E03080BFEF8B9FC001112470E00E9469
:1044A0008B25CB01992759E0359E800D911D112454
:1044B0000596B6010E948B256083D4011C92D5011C
:1044C0001C92D701BC9060816623C1F0BB20B1F083
:1044D00070E0C3010E947725269EC001279E900DA3
:1044E00011246B2D70E00E9477256A5071096F3F8F
:1044F000710529F020F06CE370E001C06CE3A2814B
:10450000B3814A9FC0014B9F900D11240596860FE1
:10451000911DB6010E947725738362832E96BEE0BB
:10452000EB0EF11C3E96025F1F4F225F3F4F54E09F
:10453000C338D50709F075CFDF91CF911F910F9147
:10454000FF90EF90DF90CF90BF90AF909F908F90B3
:104550007F906F905F904F903F902F900895CF93F2
:10456000DF93EC01FB019FB7F89422B182E0822730
:1045700082B99FBF208130E0322F22278181282BF2
:104580003F932F93228130E0322F22278381282BE3
:104590003F932F9387E292E09F938F930E9432265E
:1045A0000F900F900F900F900F900F90CE01DF9112
:1045B000CF910895AC01209136022D30C0F4909136
:1045C0003702E92FF0E0EE0FFF1FE857FA4F518353
:1045D000408381E0890F8D3019F08093370202C04B
:1045E000109237022F5F2093360280E0089581E019
:1045F0000895CFB7F89414BE88E10FB6F89480936D
:104600006000109260000FBE48E150E06FEF70E074
:104610008DE992E00E942B268FEF8093FA08809319
:10462000D30956985E9854985C9880916F008F7D5E
:1046300080936F00209A0E94AC01279A0E94AA01E1
:104640000E9A169A8AE793E09093930280939202CF
:10465000109265038AE580931F0381E080938100B7
:1046600080E28093B60083E08093B10020918400C3
:10467000309185008AE7409184005091850042176F
:10468000530708F481509A018111F5CF8091B2004F
:104690009091B2009817E1F3209184003091850049
:1046A0008091B2009091B2009817E1F3809184005C
:1046B000909185004096821B930B55E096958795C7
:1046C0005A95E1F79093FC088093FB081092B10093
:1046D000109281001092B6001092B20010928500E4
:1046E000109284008FEF87BB86BB8091B6008571E6
:1046F000E1F70A9A099A089A129A119A109A18B828
:104700008FEF87B90C98149810929500109294002E
:104710008091710081608093710080919100887F09
:1047200082608093910010928500109284008091A5
:104730006F00816080936F0080918100887F82602C
:10474000809381000E94E9018F3F19F00E944E1270
:10475000F9CF1092DB031092570286E395E0E6ED65
:10476000F9E081939193049629E0EE3EF207C9F7B0
:104770008CE08093AA031092040982EA95E0EEE6A9
:10478000F5E0819391938F9625E0E638F207C9F71B
:104790008CE08093AB031092660310923302109268
:1047A00032021092FD081092FE081092FF0810923B
:1047B0000009109258028FEF9FEF9093DE088093CC
:1047C000DD081092E0081092DF081092E1081092C4
:1047D000E2081092960285E393E0892B19F087E3B3
:1047E00093E002C085E393E090936E0380936D03A2
:1047F0008DE593E0909398098093970983E095E085
:1048000090937203809371031092940280E090E081
:10481000FC01EE50FC4F15820E968C389105C1F7C5
:1048200087E192E09093FA098093F90912E0D6E0CB
:104830006091FB087091FC08CB01A0E0B0E0BC01E6
:10484000CD012CE0660F771F881F991F2A95D1F79D
:10485000C12C31EED32EE12CF12CA70196010E9440
:104860009F25215031092093C4003093C500109337
:10487000C000D093C2001092C1006091FB087091FB
:10488000FC08CB01A0E0B0E0BC01CD014CE0660F1C
:10489000771F881F991F4A95D1F7A70196010E949B
:1048A0009F25215031092093CC003093CD001093E7
:1048B000C800D093CA001092C90084E490E090939D
:1048C000E4088093E30810927603109278038AE05C
:1048D0008093660510926C03109270031092010988
:1048E0001092EF091092EE091092CD0910927E04F9
:1048F0000E94D7011092DD031092DC0310923A025D
:104900008FEF80936F030E947E068091B6008062D5
:104910008093B6008091B60081FDFCCF82E0809349
:10492000B0008091B60080FDFCCF83E08093B100A1
:104930008091B60083FDFCCF86EE8093B30080911A
:1049400070008260809370000E94F407209125021D
:1049500030912602C9010196A0E0B0E08093610386
:1049600090936203A0936303B09364038AE099E099
:1049700090935A028093590289E399E090935C02E4
:1049800080935B0288E699E090935E0280935D02DB
:104990008FEF9FEF9093E8088093E7089093EA08E1
:1049A0008093E9089093EC088093EB089093EE08CD
:1049B0008093ED089093F0088093EF082295207F74
:1049C000209353028093CE020E94E9018F3F19F099
:1049D0000E944E12F9CFCFBF78948FB7F894909180
:1049E00066059A3031F090912803943011F08FBF12
:1049F00004C08FBF8DE00E947F020E94AE018091B3
:104A00002603811117C080915402811113C0809137
:104A10009B09813029F48091320581110BC002C0BD
:104A2000853041F083E0809354020E943D1285E07E
:104A3000809326030E94C810CFB7F8940E94E90122
:104A40008F3F09F050C080917000837089F0809191
:104A5000B6008A71E1F78091B3009091B200891B92
:104A60008C3040F08091B200853F20F483E003C099
:104A700085E001C082E0E0916E00E670E9F490917B
:104A80006F009E72E1F4E0917100EE72A9F40CB433
:104A900007FC15C09091C100987189F4E091C9009C
:104AA000E87151F49091BC0092FD09C090917A0098
:104AB00097FD04C0E5E003C0E0E001C0E1E093B78A
:104AC0008E1708F4E82FF0E0E45FFE4F8491E92FA1
:104AD000E07FE160E82BE3BF78948895F89483B792
:104AE0008E7F83BFABCFCFBF0E944E12A5CFAA1B34
:104AF000BB1B51E107C0AA1FBB1FA617B70710F0C9
:104B0000A61BB70B881F991F5A95A9F780959095FA
:104B1000BC01CD01089597FB072E16F4009407D031
:104B200077FD09D00E94772507FC05D03EF49095CB
:104B300081959F4F0895709561957F4F0895A1E2EB
:104B40001A2EAA1BBB1BFD010DC0AA1FBB1FEE1F07
:104B5000FF1FA217B307E407F50720F0A21BB30B52
:104B6000E40BF50B661F771F881F991F1A9469F7CE
:104B700060957095809590959B01AC01BD01CF012A
:104B80000895E894DF93CF93FC01DB010E94132684
:104B90007F936F93E9019A01AC01BF93AF933F9369
:104BA0002F93DF010E94132626F46C1B7D0B820BD2
:104BB000930B9E01EB01FC010E942226AF91BF9155
:104BC0002F913F910E942226BE01CF01F9012F9122
:104BD0003F91CF91DF910895EE0FFF1F0024001C3D
:104BE0000BBE0790F691E02D099497FB10F81694F0
:104BF00000080F93083098F00850232F342F452FCA
:104C0000562F672F782F892F902DF4CF05949795E5
:104C100087957795679557954795379527950A9581
:104C2000AAF70F910895A29FB001B39FC001A39F5F
:104C3000700D811D1124911DB29F700D811D1124D5
:104C4000911D08950E941326460F571FC81FD91F94
:104C500008F431960895DC0101C06D934150504035
:104C6000E0F70895CF93DF93CDB7DEB7FE01359619
:104C700061917191AF018091F9099091FA090E94B7
:104C80004426DF91CF9108952F923F924F925F92E9
:104C90006F927F928F929F92AF92BF92CF92DF924C
:104CA000EF92FF920F931F93CF93DF93CDB7DEB7B1
:104CB0002C970FB6F894DEBF0FBECDBF7C016B0101
:104CC0008A01FC0117821682838181FFBDC1CE015A
:104CD00001964C01F7019381F60193FD859193FFB5
:104CE00081916F01882309F4ABC1853239F493FDBA
:104CF000859193FF81916F01853229F4B70190E08E
:104D00000E945528E7CF512C312C20E02032A0F40E
:104D10008B3269F030F4803259F0833269F42061CB
:104D20002CC08D3239F0803339F4216026C02260E6
:104D3000246023C0286021C027FD27C030ED380F34
:104D40003A3078F426FF06C0FAE05F9E300D112459
:104D5000532E13C08AE0389E300D1124332E20626A
:104D60000CC08E3221F426FD6BC1206406C08C3647
:104D700011F4206802C0883641F4F60193FD859154
:104D800093FF81916F018111C1CF982F9F7D955421
:104D9000933028F40C5F1F4FFFE3F9830DC0833677
:104DA00031F0833771F0833509F05BC022C0F80120
:104DB000808189830E5F1F4F44244394512C5401FA
:104DC00015C03801F2E06F0E711CF801A080B180AF
:104DD00026FF03C0652D70E002C06FEF7FEFC501B5
:104DE0002C870E944A282C0183012C852F77222EA4
:104DF00017C03801F2E06F0E711CF801A080B1807D
:104E000026FF03C0652D70E002C06FEF7FEFC50184
:104E10002C870E943F282C012C852068222E83019C
:104E200023FC1BC0832D90E048165906B0F4B7014F
:104E300080E290E00E9455283A94F4CFF50127FCD7
:104E4000859127FE81915F01B70190E00E9455286E
:104E500031103A94F1E04F1A51084114510471F79E
:104E6000E5C0843611F0893639F5F80127FF07C00F
:104E700060817181828193810C5F1F4F08C06081C6
:104E80007181882777FD8095982F0E5F1F4F2F76B1
:104E9000B22E97FF09C090958095709561957F4FD0
:104EA0008F4F9F4F2068B22E2AE030E0A4010E946D
:104EB0008728A82EA81844C0853729F42F7EB22E43
:104EC0002AE030E025C0F22FF97FBF2E8F36C1F0E7
:104ED00018F4883579F0B4C0803719F0883721F09C
:104EE000AFC02F2F2061B22EB4FE0DC08B2D846079
:104EF000B82E09C024FF0AC09F2F9660B92E06C0A5
:104F000028E030E005C020E130E002C020E132E0DE
:104F1000F801B7FE07C060817181828193810C5FC7
:104F20001F4F06C06081718180E090E00E5F1F4FCF
:104F3000A4010E948728A82EA818FB2DFF77BF2E5A
:104F4000B6FE0BC02B2D2E7FA51450F4B4FE0AC064
:104F5000B2FC08C02B2D2E7E05C07A2C2B2D03C051
:104F60007A2C01C0752C24FF0DC0FE01EA0DF11D45
:104F70008081803311F4297E09C022FF06C073941A
:104F8000739404C0822F867809F0739423FD13C0B4
:104F900020FF06C05A2C731418F4530C5718732CA6
:104FA000731468F4B70180E290E02C870E945528C2
:104FB00073942C85F5CF731410F4371801C0312C7D
:104FC00024FF12C0B70180E390E02C870E9455288F
:104FD0002C8522FF17C021FF03C088E590E002C0A6
:104FE00088E790E0B7010CC0822F867859F021FD48
:104FF00002C080E201C08BE227FD8DE2B70190E0A4
:105000000E945528A51438F4B70180E390E00E946F
:1050100055285A94F7CFAA94F401EA0DF11D808126
:10502000B70190E00E945528A110F5CF332009F474
:1050300051CEB70180E290E00E9455283A94F6CF15
:10504000F7018681978102C08FEF9FEF2C960FB6F4
:10505000F894DEBF0FBECDBFDF91CF911F910F91AE
:10506000FF90EF90DF90CF90BF90AF909F908F9088
:105070007F906F905F904F903F902F900895FC012C
:105080000590615070400110D8F7809590958E0F73
:105090009F1F0895FC016150704001900110D8F7E6
:1050A000809590958E0F9F1F08950F931F93CF9318
:1050B000DF93182F092FEB018B8181FD03C08FEF48
:1050C0009FEF20C082FF10C04E815F812C813D8107
:1050D000421753077CF4E881F9819F012F5F3F4F0E
:1050E00039832883108306C0E885F985812F0995C7
:1050F000892B29F72E813F812F5F3F4F3F832E83DE
:10510000812F902FDF91CF911F910F910895FA0178
:10511000AA27283051F1203181F1E8946F936E7FF6
:105120006E5F7F4F8F4F9F4FAF4FB1E03ED0B4E0E7
:105130003CD0670F781F891F9A1FA11D680F791F28
:105140008A1F911DA11D6A0F711D811D911DA11D39
:1051500020D009F468943F912AE0269F1124301949
:10516000305D3193DEF6CF010895462F4770405DE4
:105170004193B3E00FD0C9F7F6CF462F4F70405D93
:105180004A3318F0495D31FD4052419302D0A9F7EE
:10519000EACFB4E0A6959795879577956795BA95E8
:1051A000C9F700976105710508959B01AC010A2EAE
:1051B00006945795479537952795BA95C9F7620F85
:0E51C000731F841F951FA01D0895F894FFCF44
:1051CE00800000000102A304A304D204FF01FFFF2C
:1051DE00FFFFFFFF2201000000000200000000554B
:1051EE000700000000010025783A202578210000F4
:00000001FF
